:400000000080002011000000B9030000B903000010B500F0D9F9C04670B512222A4B1A6000F006FC294801F00FFA012000F020FC302000F017FB264A264B1A60264C802574
:40004000ED052560254A116802230B431360244A244B1A600022244B1A60244A136808218B431360FA20C00000F0AEFB204800F0EFFAFE2212021F4B1A601F4B1F4919606F
:400080001F490A601F4A1A60882189011E4A11601E4A1A60802212061D4B1A608022D2021C4B1A6040221C4B1A6001321B4B1A6001321B4B1A601B49082000F091FA082012
:4000C00000F06EFA256070BD30001040001BB7000600008004010B400C020B4078002E402D3E00007C002E4064F02E406CF02E40DC050000000301400000014040FF008089
:400100000403014041FF00800803014042FF008008010B4000010B401401014010010140040101408909000010B572B600222C4B1A6000240FE02B486200131959000B0012
:40014000411889881A5AC31858880004104300F0F9F80134E4B2012CEDD9224801000C312C3000F0D5F88022D2021F4B1A60EE2212061E4B1A6099231B041D4A13601D4AAE
:4001800013601D4A13601D4A13601D490B783C22934314221343DBB20B701A4A117816230B43DBB21370D8221204174B1A602023164A1360C4218902154A1160154A1360CF
:4001C0000233154A1360154A1360213B144A1360144A1360FFF720FF00F0DAF810BDC0466CF02E40D41A000014000B40000002400001024000500F4010500F4020500F40D5
:4002000001700F4000700F40080004400001044008010440180104400002044018020440000404401804044010B5064C2378002B07D1054B002B02D0044800E000BF0123A7
:40024000237010BD68010020000000008C1A0000084B10B5002B03D00749084800E000BF07480368002B00D110BD064B002BFBD09847F9E7000000006C0100208C1A0000DE
:40028000C000002000000000F8B562B600F0FAF800F004FE00F048FE00F05AFD0025002400F022FC0028FBD100F09CFE0700012000F098FE0600002C05D1002F03D0104863
:4002C00000F05AF90134002C05D0002F03D10D4800F052F90024002D05D1002E03D00A4800F04AF90135002D05D0002E03D1074800F042F9002500F027FF00F029FDCFE78A
:40030000901A0000A01A0000B01A0000C01A0000F0B50025002711E0BB00C658F3B2FF22964308E06A008A181478A419527822700135013BDBB2002BF4D10137032FEBD9A5
:40034000F0BDC04610B50A00002101F097FB10BD0C4B1B68002803D080221206134301E05B005B08074A1360074B1B68002803D080229204134301E0044A1340024A1360A3
:400380007047C04680033A4008010B40FFFFFFFD10B50323054A1360054A13600022054B1A600120FFF7D4FF10BDC0463000304030003140000E3F4010B501F033FB036800
:4003C0000C2B00D1FEE7FEE770B50F4E0F4D13E029686B68AC68002202E001C901C30432A242FAD1E868002202E0002102C304328242FAD11035013E002EE9D101F018FBFC
:40040000FFF742FFFEE7C04601000000441C000010B50E4A136801218B43136000230AE0032B03D89A000A49505800E009489900094A885001332F2BF2D9FFF775FE034A8F
:40044000116801230B43136010BDC0460000104000000000B90300000000002010B500F075F810BD10B500F01DF810BD10B5044A1368802109060B431360FFF7EFFF10BDE9
:400480000000244010B5064B1B78002B04D1FFF7E9FF0122024B1A70FFF7E8FF10BDC04684010020154A164B1A600023154A13601549164A1160164A16490A6007201649F5
:4004C000086016490B6006381549086015490A60154A13600421154A1160154A1360154A1360154A1360154A1360154A1360154A13601268144B1A807047C0460B0000020E
:40050000000024404000244001000A00480024400700008000032440040324401003244044002440000224400402244050002440880E2440C80E2440480F2440080F244096
:40054000C80F2440880F244086010020064A1168064B0B40902109040B431360044B1A88044B1A607047C04600010240FFFF0FFF86010020880F244070B50500002402E022
:4005800000F072FF0134285D0028F9D170BDC046024B1B68012018407047C0460C002E401F2318401E3B8340014A13607047C04600E100E01F2318401E3B8340014A136015
:4005C0007047C04680E100E01F2318401E3B8340014A13607047C04680E200E001BE704770B504000D001F2802D90020FFF7F6FF1034A40080239B059C46644420682560EF
:4006000070BDC04670B504000E00032902D90020FFF7E4FF1F2C02D90020FFF7DFFF03252540ED00063500F018FFA408A400074B9C46644421680323AB4099430B0031009C
:40064000A9401943216000F00CFF70BD00E400E010B5034B1B7B584300F0F6FE10BDC046C4000020F0B557464E46C0B483B0040000F0F3FE0190E71E2D2F74D83F4B1B782C
:40068000DBB29C4208D83E4B1B78DBB29A463D4B1B78DBB2994631E03B4B1B78DBB29C4208D83A4B1B78DBB29A46394B1B78DBB2994623E0374B1B78DBB29C4208D8364B7E
:4006C0001B78DBB29A46354B1B78DBB2994615E0334B1B78DBB29C4208D8324B1B78DBB29A46314B1B78DBB2994607E02F4B1B78DBB29A462E4B1B78DBB299462D4BDE5DA6
:400700002F2E09D92A2C07D919222B4B1A60052000F09AFE192503E0274B1D683F231D40B54206D9234BDA5D234B1A60052000F08BFE1F4B9C4664442378DBB21F4A13609C
:400740001F4B52461A601F4B4A461A600520FFF77FFFB5420AD2174BDA5D174B1A60052000F072FE02E00020FFF738FF019800F078FE03B00CBC91469A46F0BD40F3FF0FD5
:4007800041F3FF0F42F3FF0F43F3FF0F44F3FF0F45F3FF0F46F3FF0F47F3FF0F48F3FF0F49F3FF0F4AF3FF0F4BF3FF0F4CF3FF0F4DF3FF0F101B00002CFF0B4028FF0B407E
:4007C0001CFF0B4020FF0B4010B504000F4A116801230B4313600E4A0E4B1A600E4A1368802109020B431360002809D100200CE00120FFF72DFFFFF7CBFE002804D1013CF4
:40080000002CF5D1102000E0002010BD60F02E400220000078002E4010002E40034B1868C0231B02184000D00120704700010B4010B50D4B1A6801218A431A601A680220BF
:4008400082431A60094A10683024A043203C204310601068093CA043014311601A68802109060A431A6010BD00F02E4000FF2E4070B51D4B1B6801241C40002802D001286E
:4008800016D02BE0184B19680122914319601968022081431960154B19682E3081432038014319601968093881430A431A6018E00D4B1A6802218A431A600C4A1068072578
:4008C000A84301431160116830208143103801431160196801220A431A6002E00020FFF77DFE200070BDC04600F02E4000FF2E4010B500F0B2FD044A1368C02109020B436B
:40090000136000F0AEFD10BD00010B4010B500F0A4FD08490A68084B1A408024E40122430A600A6813408022120213430B6000F098FD10BD00010B40FF3FFFFF70B5050032
:4009400000F08BFD0400FFF769FF002803D0FFF7DDFF012100E0002108482840084A1568084B2B40184310601368012901D1FFF7BFFF200000F075FD70BDC04604040400B1
:4009800010020B40FBFBFBFF10B5244B1B685B0715D5234B5B685B070ED5224B596A042001401F4C62688A4362605A6A82435A629B69002B00D098470420FFF7BFFF174BBB
:4009C0001B685B0518D5164B5B685B0510D5154B596A8022D2001140114842688A434260596A114A0A405A62DB69002B00D098478020C000FFF7A2FF084B1B685B030CD516
:400A0000074B5B685B0304D5064B1B6A002B00D098478020C002FFF791FF10BD10020B40D800002088010020FFFBFFFF70B5154C2368DBB2144A13700F2083431900134D22
:400A40002B780F2213400B43E13293432A788243134323600E4A0F4B1A600F4A0F4B1A600F490B688343062213430B600130FFF7A1FD0C491020FFF7B3FD03211020FFF7CB
:400A8000C1FD70BD00FF2840D001002062F2FF0F00020001080028400008A00104002840000402406D11000010B500F0AFFC00F083FC0021002000F08BFC0021002000F08D
:400AC000B1FCFF2000F06AFC402000F091FC044A136804490B4313601020FFF761FD10BD0400284000100880024B1878012318407047C046B00100204000024B181880881F
:400B00007047C046B0010020F8B5104F3E5C381803795D005D19EDB29B00DCB200F09DFCB300FB189E6832680F21A1408A4311000422A2400A435C6A23680721A9408B43B7
:400B40002360326000F08DFCF8BDC046401B0000F8B5194A145C13181F79B900C9B27D007D19EDB2154B185CA300D3189E6833680F228A4093433360022800D100200128FD
:400B800001D1002600E0062600F067FCA4000A4B1C19616A0B680722AA4093431A003300AB4013430B6000F05CFC216C0B680122BA4093430B60F8BD401B0000E8010020D1
:400BC00010B5002403E02000FFF7C2FF0134012CF9D910BD044A11684002C023DB001840084310607047C04604002840CA0807231940063B8B40825C134201D0012000E0E8
:400C00000020704710B504000134E4B2022C06D0210004480830FFF7E9FF0028F4D0200010BDC046E0000020F8B50400324B1B185C229B5C9B00314A9D5801003048FFF793
:400C4000D5FF304B9D4203D88540FF231B041D4300F0DCFB00F0B0FB2B4B185D013880B2002100F0B5FB294B185D013880B2002100F0D8FBFF2000F091FB402000F0B8FBB6
:400C80001020FFF797FC80225202214B1A60204B1B681B0CFBD101221E4B1A601020FFF793FC1020FFF77CFC1020FFF783FC1A4801681A4B19401A4B1B5D1A4A125D120471
:400CC00013430B430360184F3E68184B1E40184B1E431020FFF764FC2000FFF715FF00F0BCFB04003E60002000F0AEFB084B1D60200000F0B6FBF8BD401B0000E000002008
:400D0000D4010020FFFFFEFFEC010020DC0100200C002840140028400800284000FF80FFE0010020E401002004002840FF1FDFFF2000200010B5054B00221A70C2B21A726C
:400D400081221A70FFF770FF10BDC046B001002010B50C4C00232370FF332372207AC0B2FFF750FF2072237ADBB2012B08D8217801230B43DBB22370207AC0B2FFF754FF0A
:400D800010BDC046B001002070B50500184B1C68A4B24300174AD3189C80174B1B185C229B5C9B00154A9A58154B9A4208D801001448FFF71BFF6B000E4AD31804419C80EF
:400DC0002800FFF7C5FE1020FFF7F4FB0E4A11680E4B0B40A02109020B4313600C4A11680C4B0B4013601020FFF7DAFB70BDC0460C002840B0010020401B0000E000002049
:400E0000FFFFFEFFD401002004002840FF1FDFFF0800284000FF80FF10B5CC0807231940063B8B40DBB2002A04D0041922781343237003E0041922789A43227010BDC0463D
:400E400070B50600002400250BE03000FFF772FFFFF74AFE0128FBD03000FFF74DFE24180135002DF1D0A0B270BDC046014B19547047C046E801002010B5002404E0002187
:400E80002000FFF7F3FF0134012CF8D9FFF7CEFD0020FFF79FFEFFF793FE10BD10B50B4B5B7A002B04D1FFF7E7FF0122074B5A72FFF7FAFD00F020FA0122044B9A72044A5F
:400EC00013688021C9030B43136010BDB00100200400284030B5094B1B5C42000849545A0849545208180025057105720648C05CCB181873054BD45230BDC0469C1B00002D
:400F0000B4010020BC010020F4000020FC01002010B50400FFF70EFFFFF7E6FD0028FBD12000FFF7D7FF10BD10B5002403E02000FFF7EEFF0134012CF9D910BDF0B547467A
:400F400080B40400224B1D5C224B5F5D224B5E5D224B5B5D9846010021481030FFF746FE002810D01E4B1B191B7ABE1BB34223DA1B4E3000103000222100FFF74DFF75192A
:400F800043462B7318E0164B1B191B7ABE19B3420EDB134B5D192B7B013BDBB22B73002B0AD1012221000E481030FFF735FF03E00B4B5D1943462B73210009481030FFF7CA
:400FC00015FE002800D0012004BC9046F0BDC0469C1B00000402002000020020F4000020BC01002070B5084B1C5C18180579651900262000FFF7A2FF002800D0012601343F
:40100000A542F6D8300070BDA81B0000401849004018800880B27047F0B5474680B482B004003C4B1E5C3C4B9B5D019342003B4BD75A3B4B9B79002B08D03A4D9046515B22
:401040003800FFF7E3FF070043465853E1B2334A354800F0D7FA6300344A9A5A974207D30021334B1955BD1AADB20123984603E0D51BADB2002398464346002B15D12D4BC5
:401080009B5D9D4211D92A4B1B5D254A12191279934206D32000FFF71DFF0022244B1A551EE00133224A13551AE06B469B889D4206D9204B9B5D9D4212D24346002B0FD131
:4010C00013029C46194801190B7966463343FF18BF1A3A0A6300C2520F710022144B1A556B469E88B5420DD94346002B0AD0FF2D04D90E4B1C19FF23237207E00B4B1C19BB
:40110000257203E0094B1C190023237202B004BC9046F0BD9C1B0000F0010020B4010020F4000020FC01002020020020BC010020F4010020F801002010B5040000F064F8CF
:401140002000FFF769FF10BD10B5002409E021000548FFF74BFD002802D02000FFF7ECFF0134012CF3D910BDE800002010B51020FFF720FA01221E4B1A601E4B1878C0B232
:40118000FFF702FE1C4B1B785BB2002B05DA1A4A137801218B43137026E0164C2078C0B2FFF730FD20702378DBB2012B05D8114B1878C0B2FFF738FD16E00F4B1A780121E3
:4011C0008A431A701B785B060ED500220B4B1A7006E00B4AD15C0B4AD1540133074A1370064B1B78002BF4D01020FFF7D9F910BD14002840B8010020B0010020CD01002029
:40120000D8010020E800002070B582B0154B1C5C154EC1B2154D009533002200144800F06FFA335D295D134A1155DB2B03D8DB08114A135514E0EC2B03D81B090E4A13557D
:401240000EE0F42B03D85B090B4A135508E0F92B03D89B09084A135502E00022064B1A5502B070BD9C1B000004020020F001002020020020F801002000020020024A13684B
:4012800040218B431360704704002840044A1168044B0B40802189000B4313607047C04608002840FFFCFFFC70B5002308E00D49CA5C55080C4CE55401325208CA54013381
:4012C00002789342F3D31020FFF774F9074A1168074B0B4007490B4313601020FFF760F970BDC046E0010020E401002008002840FFFCFFFC0002000170B5204B02221A706F
:401300005A709A702E32DA801D4A9A801D4A9A60FFF7B4FF002304E099001B481B4A88500133164A52789342F6D3002306E01021174AD1540C39174AD1540133012BF6D99E
:40134000FFF7A4FF144D0D4C2900200000F0BAF8200000F0C8F82900200000F0B3F8200000F0E2F82000FFF79FFF002403E02000FFF74AFF0134012CF9D970BD20020020D4
:4013800098090000B01B00000000FF0FE0000020DC010020EC0100209A0D0000044B1B68002BFBDB0002034B1843014B186070470000014040000080034B1B68002BFBDB36
:4013C000024A014B1A607047000001404000004010B5064A13680724234000021843CB00FF2119400143116010BDC04600030140044B1B68002BFBDB0002034B1843014B0E
:40140000186070470000014041000080034B1B68002BFBDB024A014B1A607047000001404100004010B5064A13680724234000021843CB00FF2119400143116010BDC046D7
:4014400004030140000000000230800803D00138FDD1C046C046C0467047EFF3108072B6704780F310887047044B1B681F221340082BF9D0024B18607047C0460802244062
:4014800040022440F7B59C180023071C08268025019100922370237800982B432370BB689B6C9847019B984202D22378AB432370013E6D08002EEED12378F82B01D9F8235F
:4014C0002370F7BD70B5051C0E1C00242B789C4208D2AB68221C281C311C1B68FFF7D2FF0134F3E770BD38B5051C00242B789C4219D2AA6813681B5DDB080F2B00D90F2383
:40150000D16BD268C95C1155AA68042B04D9936D906B211C012203E0936D906B211C002298470134E2E738BDF0B5041C002687B063789E4262D2A3685A6C925D0392002A92
:4015400001D1013203921A6C925D019201992278914251D29A689B69515C0F221140B2000492002205910499019D5A50019B5B000293039B019A9B189D423DD2A768E388A5
:40158000A0885843FB68595D00F060F93B68595D00F0D2F8059B5843194B40005A2802D95B084008FAE7BA6904991B0C1B045350A36882085B6B01215855A368C008DB6941
:4015C000029F5A550F22A36849421B6A5855A3685B6A5A55A368986AC1530021D86AC153186B9B68C1535B19197801350A401A703B1C02330293BCE7013699E707B0F0BD03
:401600000000FFFFF0B585684E002B6B925B9B191C8887B0141B0094AC6A1A80A45B6B6A0294EC6A5F5CA45B2B6A03946C6B7F00645C5B180494AC680193645C1B780594EC
:40164000009CE40FA4460F24251C6744009C3D40AC46E51764196C409C4203D2012B05D0013B00E00133FF273F2B00D89F00019D2B7065460F2D29D0002D24D0BC4225D862
:40168000059C029F24090094974200D9171C039D954200D2151C009A092A01D8141C01343A1C0A2C14D1EA1B934206D9049A92089A42924152429B1A00E001338268D2692A
:4016C00053543A1C04E0151C644601E0151C00246746836824015B6A5F5483689F6ABA53DA6A9B6895530F225B181D782A401A7083689B6859180B781C430C7007B0F0BD45
:4017000070B58068446BC069655C405CFF213F2801D88100C9B246B2FF24002E01DB4000C4B28D4201D9291C6C08012081439954049B9C5470BD0000002243088B4274D3BF
:4017400003098B425FD3030A8B4244D3030B8B4228D3030C8B420DD3FF22090212BA030C8B4202D31212090265D0030B8B4219D300E0090AC30B8B4201D3CB03C01A52416A
:40178000830B8B4201D38B03C01A5241430B8B4201D34B03C01A5241030B8B4201D30B03C01A5241C30A8B4201D3CB02C01A5241830A8B4201D38B02C01A5241430A8B4241
:4017C00001D34B02C01A5241030A8B4201D30B02C01A5241CDD2C3098B4201D3CB01C01A524183098B4201D38B01C01A524143098B4201D34B01C01A524103098B4201D375
:401800000B01C01A5241C3088B4201D3CB00C01A524183088B4201D38B00C01A524143088B4201D34B00C01A5241411A00D20146524110467047FFE701B5002000F0F0F81B
:4018400002BDC0460029F7D076E7704703460B437FD4002243088B4274D303098B425FD3030A8B4244D3030B8B4228D3030C8B420DD3FF22090212BA030C8B4202D31212D9
:40188000090265D0030B8B4219D300E0090AC30B8B4201D3CB03C01A5241830B8B4201D38B03C01A5241430B8B4201D34B03C01A5241030B8B4201D30B03C01A5241C30AB9
:4018C0008B4201D3CB02C01A5241830A8B4201D38B02C01A5241430A8B4201D34B02C01A5241030A8B4201D30B02C01A5241CDD2C3098B4201D3CB01C01A524183098B4277
:4019000001D38B01C01A524143098B4201D34B01C01A524103098B4201D30B01C01A5241C3088B4201D3CB00C01A524183088B4201D38B00C01A524143088B4201D34B000F
:40194000C01A5241411A00D201465241104670475DE0CA0F00D04942031000D34042534000229C4603098B422DD3030A8B4212D3FC22890112BA030A8B420CD38901921184
:401980008B4208D3890192118B4204D389013AD0921100E08909C3098B4201D3CB01C01A524183098B4201D38B01C01A524143098B4201D34B01C01A524103098B4201D3E6
:4019C0000B01C01A5241C3088B4201D3CB00C01A524183088B4201D38B00C01A5241D9D243088B4201D34B00C01A5241411A00D20146634652415B10104601D34042002B65
:401A000000D54942704763465B1000D3404201B5002000F005F802BD0029F8D016E770477047C046014B18687047C046600100200E4B70B500251E000D4CE41AA410A54285
:401A400004D0AB00F35898470135F8E700F0E8F8084B00251E00084CE41AA410A54204D0AB00F35898470135F8E770BD2C1C00002C1C00002C1C0000341C000003008218A5
:401A8000934202D019700133FAE77047000000004C45465420707265737365640D0A00004C4546542072656C65617365640D0A00524947485420707265737365640D0A0080
:401AC00052494748542072656C65617365640D0A0000000000300F40000400400F40000438283E1458045F0119081A04AD08AE043B043F029304A301AF05CEC0EA40EE109D
:401B000004300F4002310F4002330F4008410F40030405060708090A0B0C0E0F101112131415161718191B1C1D1E1F2021222325262728292A2B2E2F303132333435000094
:401B4000020200000105000000000240000102400002024000030240000402400005024000060240080004400801044008020440080304400804044008050440080604404F
:401B8000000004400001044000020440000304400004044000050440000604400001000002000000200000000001000001010000E0010020E4010020FC000020DC010020EF
:401BC000EC0100209C1B0000E000002014020020080200200C0200201C02002010020020180200202C020020D40100200C1C0000A81B0000AC1B0000410E0000290C000070
:401C0000F90A0000ED0B0000190E00000404040808080810101010101010101043000000F8B5C046F8BC08BC9E4670475102000011040000F8B5C046F8BC08BC9E4670478F
:401C400029020000581C0000C0000020A8000000C80000000000000000000000010000000000C05D80BB000030000000006CDC02F0000000040404000000FF0F0000FF0F8A
:401C8000030000000802044008020440050500001E1E01000202000000000000000000000000000000000000000000000000000000000000000000001C1C00000000000002
:401CC00000000000000000000000000000000000000000000000000000000000000000000000000000000000000000000000000000000000000000000001002000000000C3
:401D000000000000000000000000000000000000000000000000000000000000000000000000000000000000000000000000000000000000000000000000000000000000A3
:401D40000000000000000000000000000000000000000000000000000000000000000000000000000000000000000000000000000000000000000000000000000000000063
:401D80000000000000000000000000000000000000000000000000000000000000000000000000000000000000000000000000000000000000000000000000000000000023
:401DC00000000000000000000000000000000000000000000000000000000000000000000000000000000000000000000000000000000000000000000000000000000000E3
:020000040003F7
:0200000490303A
:02000000226A72
:0200000490402A
:4000000000000000000000000000000000000000000000000000000000000000000000000000000000000000000000000000000000000000000000000000000000000000C0
:400040000000000000000000000000000000000000000000000000000000000000000000000000000000000000000000000000000000000000000000000000000000000080
:0200000490501A
:0C00000000021A1711AA00011A20341483
:0200000490600A
:0100000001FE
:00000001FF