:400000000080002011000000850300008503000010B500F0D7F9C04670B512222A4B1A6000F004FC294801F08BFA012000F01EFC302000F015FB264A264B1A60264C802568
:40004000ED052560254A116802230B431360244A244B1A600022244B1A60244A136808218B431360FA20C00000F0ACFB204800F0EDFAFE2212021F4B1A601F4B1F49196073
:400080001F490A601F4A1A60882189011E4A11601E4A1A60802212061D4B1A608022D2021C4B1A6040221C4B1A6001321B4B1A6001321B4B1A601B49082000F08FFA082014
:4000C00000F06CFA256070BD30001040001BB7000600008004010B400C020B4078002E402D3E00007C002E4064F02E406CF02E40DC050000000301400000014040FF00808B
:400100000403014041FF00800803014042FF008008010B4000010B401401014010010140040101408509000010B572B600222C4B1A6000240FE02B486200131959000B0016
:40014000411889881A5AC31858880004104300F0DFF80134E4B2012CEDD9224801000C312C3000F0BBF88022D2021F4B1A60EE2212061E4B1A6099231B041D4A13601D4AE2
:4001800013601D4A13601D4A13601D490B783C22934314221343DBB20B701A4A117816230B43DBB21370D8221204174B1A602023164A1360C4218902154A1160154A1360CF
:4001C0001E33154A1360154A13603D3B144A1360144A1360FFF720FF00F0C0F810BDC0466CF02E40EC23000014000B40000002400001024000500F4010500F4020500F4096
:4002000001700F4000700F40080004400001044008010440180104400002044018020440000404401804044010B5064C2378002B07D1054B002B02D0044800E000BF0123A7
:40024000237010BD8001002000000000E0230000084B10B5002B03D00749084800E000BF07480368002B00D110BD064B002BFBD09847F9E70000000084010020E0230000F4
:40028000C00000200000000030B585B062B600F0F7F800F001FE00F059FE00F057FD0D4D00F020FC0028FBD100F092FF0400094A90420AD0854208D00200074901A801F06A
:4002C00061FC01A800F056F9250000F06FFF00F03DFDE5E7FFFF0000E4230000F0B50025002711E0BB00C658F3B2FF22964308E06A008A181478A419527822700135013BD6
:40030000DBB2002BF4D10137032FEBD9F0BDC04610B50A00002101F02DFC10BD0C4B1B68002803D080221206134301E05B005B08074A1360074B1B68002803D08022920438
:40034000134301E0044A1340024A13607047C04680033A4008010B40FFFFFFFD10B50323054A1360054A13600022054B1A600120FFF7D4FF10BDC046300030403000314085
:40038000000E3F4010B501F0C9FB03680C2B00D1FEE7FEE710B50300084A1068C318084A9A1A802A02DC054A136005E001F0B6FB0C2303600120404210BDC046C4000020C9
:4003C000B802002070B50F4E0F4D13E029686B68AC68002202E001C901C30432A242FAD1E868002202E0002102C304328242FAD11035013E002EE9D101F096FBFFF744FF3D
:40040000FEE7C04601000000A825000010B50E4A136801218B43136000230AE0032B03D89A000A49505800E009489900094A885001332F2BF2D9FFF777FE034A11680123BA
:400440000B43136010BDC0460000104000000000850300000000002010B500F075F810BD10B500F01DF810BD10B5044A1368802109060B431360FFF7EFFF10BD0000244056
:4004800010B5064B1B78002B04D1FFF7E9FF0122024B1A70FFF7E8FF10BDC0469C010020154A164B1A600023154A13601549164A1160164A16490A6007201649086016497A
:4004C0000B6006381549086015490A60154A13600421154A1160154A1360154A1360154A1360154A1360154A1360154A13601268144B1A807047C0460B0000020000244071
:400500004000244001000A00480024400700008000032440040324401003244044002440000224400402244050002440880E2440C80E2440480F2440080F2440C80F2440BF
:40054000880F24409E010020064A1168064B0B40902109040B431360044B1A88044B1A607047C04600010240FFFF0FFF9E010020880F244070B50500002402E000F0F0FF4E
:400580000134285D0028F9D170BDC046024B1B68012018407047C0460C002E401F2318401E3B8340014A13607047C04600E100E01F2318401E3B8340014A13607047C046B9
:4005C00080E100E01F2318401E3B8340014A13607047C04680E200E001BE704770B504000D001F2802D90020FFF7F6FF1034A40080239B059C4664442068256070BDC04679
:4006000070B504000E00032902D90020FFF7E4FF1F2C02D90020FFF7DFFF03252540ED00063500F096FFA408A400074B9C46644421680323AB4099430B003100A94019430C
:40064000216000F08AFF70BD00E400E010B5034B1B7B584300F074FF10BDC046C8000020F0B557464E46C0B483B0040000F071FF0190E71E2D2F74D83F4B1B78DBB29C4286
:4006800008D83E4B1B78DBB29A463D4B1B78DBB2994631E03B4B1B78DBB29C4208D83A4B1B78DBB29A46394B1B78DBB2994623E0374B1B78DBB29C4208D8364B1B78DBB2C9
:4006C0009A46354B1B78DBB2994615E0334B1B78DBB29C4208D8324B1B78DBB29A46314B1B78DBB2994607E02F4B1B78DBB29A462E4B1B78DBB299462D4BDE5D2F2E09D987
:400700002A2C07D919222B4B1A60052000F018FF192503E0274B1D683F231D40B54206D9234BDA5D234B1A60052000F009FF1F4B9C4664442378DBB21F4A13601F4B5246DB
:400740001A601F4B4A461A600520FFF77FFFB5420AD2174BDA5D174B1A60052000F0F0FE02E00020FFF738FF019800F0F6FE03B00CBC91469A46F0BD40F3FF0F41F3FF0F99
:4007800042F3FF0F43F3FF0F44F3FF0F45F3FF0F46F3FF0F47F3FF0F48F3FF0F49F3FF0F4AF3FF0F4BF3FF0F4CF3FF0F4DF3FF0F282400002CFF0B4028FF0B401CFF0B4039
:4007C00020FF0B4010B504000F4A116801230B4313600E4A0E4B1A600E4A1368802109020B431360002809D100200CE00120FFF72DFFFFF7CBFE002804D1013C002CF5D168
:40080000102000E0002010BD60F02E400220000078002E4010002E40034B1868C0231B02184000D00120704700010B4010B50D4B1A6801218A431A601A68022082431A6072
:40084000094A10683024A043203C204310601068093CA043014311601A68802109060A431A6010BD00F02E4000FF2E4070B51D4B1B6801241C40002802D0012816D02BE0BC
:40088000184B19680122914319601968022081431960154B19682E3081432038014319601968093881430A431A6018E00D4B1A6802218A431A600C4A10680725A84301433A
:4008C0001160116830208143103801431160196801220A431A6002E00020FFF77DFE200070BDC04600F02E4000FF2E4010B500F030FE044A1368C02109020B43136000F0B8
:400900002CFE10BD00010B4010B500F022FE08490A68084B1A408024E40122430A600A6813408022120213430B6000F016FE10BD00010B40FF3FFFFF70B5050000F009FE21
:400940000400FFF769FF002803D0FFF7DDFF012100E0002108482840084A1568084B2B40184310601368012901D1FFF7BFFF200000F0F3FD70BDC0460404040010020B404E
:40098000FBFBFBFF10B5244B1B685B0715D5234B5B685B070ED5224B596A042001401F4C62688A4362605A6A82435A629B69002B00D098470420FFF7BFFF174B1B685B0535
:4009C00018D5164B5B685B0510D5154B596A8022D2001140114842688A434260596A114A0A405A62DB69002B00D098478020C000FFF7A2FF084B1B685B030CD5074B5B68E4
:400A00005B0304D5064B1B6A002B00D098478020C002FFF791FF10BD10020B40DC000020A0010020FFFBFFFF70B5154C2368DBB2144A13700F2083431900134D2B780F2247
:400A400013400B43E13293432A788243134323600E4A0F4B1A600F4A0F4B1A600F490B688343062213430B600130FFF7A1FD0C491020FFF7B3FD03211020FFF7C1FD70BDB4
:400A800000FF28400C02002062F2FF0F00020001080028400008A00104002840000402404D12000010B500F02DFD00F001FD0021002000F009FD0021002000F02FFDFF2092
:400AC00000F0E8FC402000F00FFD044A136804490B4313601020FFF761FD10BD0400284000100880024B1878012318407047C046C80100204000024B181880887047C04619
:400B0000C8010020F8B5104F3E5C3818037A5D005D19EDB29B00DCB200F01BFDB300FB181E6932680F21A1408A4311000422A2400A43DC6A23680721A9408B4323603260C6
:400B400000F00BFDF8BDC04658240000F8B5194A145C13181F7AB900C9B27D007D19EDB2154B185CA300D3181E6933680F228A4093433360022800D10020012801D10026F8
:400B800000E0062600F0E5FCA4000A4B1C19E16A0B680722AA4093431A003300AB4013430B6000F0DAFCA16C0B680122BA4093430B60F8BD582400003002002010B500247A
:400BC00003E02000FFF7C2FF0134042CF9D910BD044A11684002C023DB001840084310607047C04604002840CA0807231940063B8B40825C134201D0012000E000207047F7
:400C000010B504000134E4B2052C06D0210004480430FFF7E9FF0028F4D0200010BDC046E4000020F8B50400324B1B1864229B5C9B00314A9D5801003048FFF7D5FF304B10
:400C40009D4203D88540FF231B041D4300F05AFC00F02EFC2B4B185D013880B2002100F033FC294B185D013880B2002100F056FCFF2000F00FFC402000F036FC1020FFF7E5
:400C800097FC80225202214B1A60204B1B681B0CFBD101221E4B1A601020FFF793FC1020FFF77CFC1020FFF783FC1A4801681A4B19401A4B1B5D1A4A125D120413430B43F3
:400CC0000360184F3E68184B1E40184B1E431020FFF764FC2000FFF715FF00F03AFC04003E60002000F02CFC084B1D60200000F034FCF8BD58240000E400002010020020D8
:400D0000FFFFFEFF38020020180200200C002840140028400800284000FF80FF200200202802002004002840FF1FDFFF2000200010B5054B00221A70C2B29A7381221A70A3
:400D4000FFF770FF10BDC046C801002010B50C4C00232370FF33A373A07BC0B2FFF750FFA073A37BDBB2042B08D8217801230B43DBB22370A07BC0B2FFF754FF10BDC046C4
:400D8000C801002070B50500184B1C68A4B24300174AD3189C80174B1B1864229B5C9B00154A9A58154B9A4208D801001448FFF71BFF6B000E4AD31804419C802800FFF784
:400DC000C5FE1020FFF7F4FB0E4A11680E4B0B40A02109020B4313600C4A11680C4B0B4013601020FFF7DAFB70BDC0460C002840C801002058240000E4000020FFFFFEFF2F
:400E00001002002004002840FF1FDFFF0800284000FF80FF10B5CC0807231940063B8B40DBB2002A04D0041922781343237003E0041922789A43227010BDC04670B50600D0
:400E4000002400250BE03000FFF772FFFFF74AFE0128FBD03000FFF74DFE24180135002DF1D0A0B270BDC046014B19547047C0463002002010B5002404E000212000FFF753
:400E8000F3FF0134042CF8D9FFF7CEFD0020FFF79FFEFFF793FE10BD10B50B4BDB7B002B04D1FFF7E7FF0122074BDA73FFF7FAFD00F092FA0122044B1A74044A1368802160
:400EC000C9030B43136010BDC801002004002840F0B5002714E00C4BDE5D0C4BDB5DF6181A00002404E08D5CAC4200D22C000132B242F8D301E0CC540133B342FBD301373B
:400F00008742E8D3F0BDC046D8240000DC2400004300054A9A5A05495A52081800210173017503495A527047CC010020DC0100205002002010B50400FFF7FAFEFFF7D2FD4C
:400F40000028FBD12000FFF7E3FF10BD10B5002403E02000FFF7EEFF0134042CF9D910BD70B5094D14352D180026FF20002308E0EC5C944203D9A64201D226001800013365
:400F8000DBB28B42F4D370BDDC010020F0B583B004000192009308AB1878344B14335918002C02D0661EF6B200E00026631CDDB20B5D9C462D4B243362465A70002C07D19D
:400FC0002A4B002624229E544A5D24339A7012E0019A013A944207D1895D244B24229954243300229A7006E08E5D204B24229E544A5D24339A7024231C4AD35C834204D99B
:401000001B1A242219498B5403E000212423174AD154164A243253781B1ADBB253709278904204D2101A114A2432907003E000210E4A243291700D490A00243292782420D9
:40104000095C501AC9188918000200F07BFC240200196B4600255D5F6843FE23DB019C466044000CC0B203B0F0BDC046DC010020401849004018800880B27047F0B547463A
:4010800080B482B004003C4B1E5C3C4B9B5D019342003B4BD75A3B4B5B7A002B08D03A4D9046515B3800FFF7E3FF070043465853E1B2334A354800F021FB6300344A9A5A99
:4010C000974207D30021334B1955BD1AADB20123984603E0D51BADB2002398464346002B15D12D4B9B5D9D4211D92A4B1B5D254A12191279934206D32000FFF709FF0022F2
:40110000244B1A551EE00133224A13551AE06B469B889D4206D9204B9B5D9D4212D24346002B0FD113029C46194801190B7B66463343FF18BF1A3A0A6300C2520F7300221C
:40114000144B1A556B469E88B5420DD94346002B0AD0FF2D04D90E4B1C19FF23237507E00B4B1C19257503E0094B1C190023237502B004BC9046F0BDBC24000040020020A4
:40118000CC0100200001002050020020A0020020DC010020440200204C02002010B5040000F0A2F82000FFF769FF10BD10B5002409E021000548FFF717FD002802D020001A
:4011C000FFF7ECFF0134042CF3D910BDE800002030B583B00400194B1B181D7B184B1A5C05210020FFF7BCFEFF281FD0154B1B5D0093C8235B0105220021FFF7C7FE010022
:4012000080B26B1CDBB20D4A5219127B002A06D10A4AD3181973551901232B730BE0074CE418217BFFF724FF207304E0034B5D1900232B73044803B030BDC046000100201F
:401240006002002040020020FFFF000010B51020FFF7AEF901221E4B1A601E4B1878C0B2FFF790FD1C4B1B785BB2002B05DA1A4A137801218B43137026E0164C2078C0B221
:40128000FFF7BEFC20702378DBB2042B05D8114B1878C0B2FFF7C6FC16E00F4B1A7801218A431A701B785B060ED500220B4B1A7006E00B4AD15C0B4AD1540133074A137086
:4012C000064B1B78002BF4D01020FFF767F910BD14002840D6010020C80100200302002014020020E800002070B582B0154B1C5C154EC1B2154D009533002200144800F06C
:401300007BFA335D295D134A1155DB2B03D8DB08114A135514E0EC2B03D81B090E4A13550EE0F42B03D85B090B4A135508E0F92B03D89B09084A135502E00022064B1A55FC
:4013400002B070BDBC2400006002002040020020A00200204C0200205C020020024A136840218B431360704704002840044A1168044B0B40802189000B4313607047C04687
:4013800008002840FFFCFFFC70B5002208E00D498B5C5D080C4CA55401335B088B54013203789A42F3D31020FFF702F9074A1168074B0B4007490B4313601020FFF7EEF83A
:4013C00070BDC046200200202802002008002840FFFCFFFC0002000170B5254B05221A70012159709A702B32DA80224A9A80224A9A60FFF7B3FF002304E099001F48204ACE
:40140000885001331A4A52789342F6D3002306E010211C4AD1540C391B4AD1540133042BF6D9FFF7A3FF194E114C3100200000F0C5F8174D29000120FFF74AFD200000F0B9
:40144000CEF83100200000F0B9F829000120FFF73FFD200000F0E4F82000FFF795FF002403E02000FFF740FF0134042CF9D970BDA002002098090000E02400000000FF0F6D
:40148000E400002018020020380200209A0D000020020020044B1B68002BFBDB0002034B1843014B186070470000014040000080034B1B68002BFBDB024A014B1A60704716
:4014C000000001404000004010B5064A13680724234000021843CB00FF2119400143116010BDC04600030140044B1B68002BFBDB0002034B1843014B186070470000014066
:4015000041000080034B1B68002BFBDB024A014B1A607047000001404100004010B5064A13680724234000021843CB00FF2119400143116010BDC0460403014000000000FE
:401540000230800803D00138FDD1C046C046C0467047EFF3108072B6704780F310887047044B1B681F221340082BF9D0024B18607047C0460802244040022440F7B59C18A3
:401580000023071C08268025019100922370237800982B432370BB689B6C9847019B984202D22378AB432370013E6D08002EEED12378F82B01D9F8232370F7BD70B5051CD7
:4015C0000E1C00242B789C4208D2AB68221C281C311C1B68FFF7D2FF0134F3E770BD38B5051C00242B789C4219D2AA6813681B5DDB080F2B00D90F23D16BD268C95C11550E
:40160000AA68042B04D9936D906B211C012203E0936D906B211C002298470134E2E738BDF0B5041C002687B063789E4262D2A3685A6C925D0392002A01D1013203921A6C72
:40164000925D019201992278914251D29A689B69515C0F221140B2000492002205910499019D5A50019B5B000293039B019A9B189D423DD2A768E388A0885843FB68595DE8
:4016800000F060F93B68595D00F0D2F8059B5843194B40005A2802D95B084008FAE7BA6904991B0C1B045350A36882085B6B01215855A368C008DB69029F5A550F22A36890
:4016C00049421B6A5855A3685B6A5A55A368986AC1530021D86AC153186B9B68C1535B19197801350A401A703B1C02330293BCE7013699E707B0F0BD0000FFFFF0B58568FE
:401700004E002B6B925B9B191C8887B0141B0094AC6A1A80A45B6B6A0294EC6A5F5CA45B2B6A03946C6B7F00645C5B180494AC680193645C1B780594009CE40FA4460F24CF
:40174000251C6744009C3D40AC46E51764196C409C4203D2012B05D0013B00E00133FF273F2B00D89F00019D2B7065460F2D29D0002D24D0BC4225D8059C029F240900940A
:40178000974200D9171C039D954200D2151C009A092A01D8141C01343A1C0A2C14D1EA1B934206D9049A92089A42924152429B1A00E001338268D26953543A1C04E0151C1A
:4017C000644601E0151C00246746836824015B6A5F5483689F6ABA53DA6A9B6895530F225B181D782A401A7083689B6859180B781C430C7007B0F0BD70B58068446BC06971
:40180000655C405CFF213F2801D88100C9B246B2FF24002E01DB4000C4B28D4201D9291C6C08012081439954049B9C5470BD0000002243088B4274D303098B425FD3030A8B
:401840008B4244D3030B8B4228D3030C8B420DD3FF22090212BA030C8B4202D31212090265D0030B8B4219D300E0090AC30B8B4201D3CB03C01A5241830B8B4201D38B03C4
:40188000C01A5241430B8B4201D34B03C01A5241030B8B4201D30B03C01A5241C30A8B4201D3CB02C01A5241830A8B4201D38B02C01A5241430A8B4201D34B02C01A52416F
:4018C000030A8B4201D30B02C01A5241CDD2C3098B4201D3CB01C01A524183098B4201D38B01C01A524143098B4201D34B01C01A524103098B4201D30B01C01A5241C308BE
:401900008B4201D3CB00C01A524183088B4201D38B00C01A524143088B4201D34B00C01A5241411A00D20146524110467047FFE701B5002000F0F0F802BDC0460029F7D0A9
:4019400076E7704703460B437FD4002243088B4274D303098B425FD3030A8B4244D3030B8B4228D3030C8B420DD3FF22090212BA030C8B4202D31212090265D0030B8B4272
:4019800019D300E0090AC30B8B4201D3CB03C01A5241830B8B4201D38B03C01A5241430B8B4201D34B03C01A5241030B8B4201D30B03C01A5241C30A8B4201D3CB02C01A8B
:4019C0005241830A8B4201D38B02C01A5241430A8B4201D34B02C01A5241030A8B4201D30B02C01A5241CDD2C3098B4201D3CB01C01A524183098B4201D38B01C01A5241F1
:401A000043098B4201D34B01C01A524103098B4201D30B01C01A5241C3088B4201D3CB00C01A524183088B4201D38B00C01A524143088B4201D34B00C01A5241411A00D241
:401A400001465241104670475DE0CA0F00D04942031000D34042534000229C4603098B422DD3030A8B4212D3FC22890112BA030A8B420CD3890192118B4208D38901921148
:401A80008B4204D389013AD0921100E08909C3098B4201D3CB01C01A524183098B4201D38B01C01A524143098B4201D34B01C01A524103098B4201D30B01C01A5241C30876
:401AC0008B4201D3CB00C01A524183088B4201D38B00C01A5241D9D243088B4201D34B00C01A5241411A00D20146634652415B10104601D34042002B00D5494270476346E8
:401B00005B1000D3404201B5002000F005F802BD0029F8D016E770477047C046014B18687047C046780100200E4B70B500251E000D4CE41AA410A54204D0AB00F358984783
:401B40000135F8E700F01EFD084B00251E00084CE41AA410A54204D0AB00F35898470135F8E770BD9025000090250000902500009825000003008218934202D019700133FA
:401B8000FAE770470EB410B59DB002A9029008610B48822488604861012040421FABC881084804CBA400006801938C8100F06EF80023029A13701DB010BC08BC03B0184700
:401BC000FFFFFF7F78010020F0B58E6885B007000C00039201939E4243D890238A89DB001A423ED003250969236801985B1A029363695D43EB0F5D19029B6D1001331B1899
:401C0000AB4200D91D00530510D52900380000F041FB061E14D0029A216900F0D0FAA289194B134080221343A38112E02A00380000F090FB061E0CD12169380000F0DEFAB7
:401C40000C23402201203B60A38940421343A38117E0029B2661F61826606561019EED1AA560019BB34200D21E0032000399206800F0AEFA0020A3689B1BA36023689E193A
:401C8000266005B0F0BDC0467FFBFFFFF0B59FB0029005938B890F0016001B0610D50B69002B0DD1402100F0F5FA38603861002804D10C23029A01381360D8E040237B6108
:401CC000002306AD6B6120336B761033AB7634002378002B03D1A31B049312D003E0252BF9D00134F4E7A31B320039000298FFF76BFF431C00D1B4E06A69049B94466344BF
:401D00006B612378002B00D1ABE00122002352426A6002A95432521801342B60EB60AB601370AB65534E21780522300000F03CFA002807D00123801B83402A680134134378
:401D40002B60EFE72B68DA0604D55322202102A8121811701A0704D553222B2102A81218117022782A2A03D0099B00200A210EE0059A111D12680591002A01DB099204E09B
:401D80005242EA60022213432B6001340BE02278303A092A04D84B4301349B180120F6E7002800D0099323782E2B1ED163782A2B0AD1059B02341A1D1B680592002B01DAEA
:401DC00001235B42079310E000230A201A0001346B6021783039092904D84243013452180123F6E7002B00D00792234E21780322300000F0D9F9002806D04023801B834088
:401E00002A68013413432B60217806221B48661C297600F0C9F9002812D0194B002B06D10722059B073393430833059314E005AB00933A00134B2900029800E000BF07E0CF
:401E400005AB00933A000F4B2900029800F08AF80390039B013304D06B69039A9B186B6135E7BB890B985B0601D5012040421FB0F0BDC0464E250000542500005825000065
:401E800000000000C91B0000F7B5170001938A680B6900900C00934200DA130022003B6043321278002A01D001333B6023689B0602D53B6802333B60062523681D401ED026
:401EC000230043331B785A1E9341226892061CD53020E1184331087021005A1C45310978A2184332023311700FE022000123193201990098089EB047431C0ED00135E368A2
:401F00003A689B1A9D42F0DBDAE72200019943320098089DA847431C02D10120404220E006232068E1683A6803400025042B03D18D1AEB43DB171D40A3682269934201DD39
:401F40009B1AED180027BD420AD0220001231A3201990098089EB047431CDED00137F2E70020FEBDF0B58BB006920A0043320793059004920A7E0C00109B6E2A00D1ABE05E
:401F800011D8632A22D009D8002A00D1B5E0582A00D0C5E045310A70814A4FE0642A1DD0692A1BD0BCE0732A00D1AAE009D86F2A29D0702A00D0B3E0202209680A432260E8
:401FC00037E0752A1FD0782A33D0A9E00E001A684236111D196013683370A4E021681A68080606D4490604D5111D19600023D55E02E0111D19601568002D3BDA2D23049A6F
:402000006D42137036E021681A68080606D4490604D51568111D1960ADB202E0111D196015685F4B227E039308276F2A1DD00A271BE022007821453211705A4A1968039286
:40204000081D226818600D68100602D4500600D5ADB2D30702D520231A4322601027002D03D1202322689A4322602300002243331A7002E00A274A4B03936368A360002B9B
:4020800009DB0422216891432160002D05D1049E002B11D07BE0002D79D0049E28003900FFF74CFC039B013E5B5C280033703900FFF7BEFB051EF1D1082F09D12368DB07CB
:4020C00006D563682269934202DC3023013E3370049B9B1B23612BE009681A68080607D4490605D5111D19601368A28A1A8004E0111D1960136862691A600023049E236162
:4021000016E01A68111D1960166800216268300000F04AF8002801D0801B6060636803E0260042363270012323610023049A1370079B09AA00932100069B0598FFF7A4FEA8
:40214000431C02D10120404227E02369320006990598079DA847431CF4D0236800259B070FD4099BE068984217DA180015E022000123193206990598079EB047431CE1D061
:402180000135E368099A9B1A9D42F0DBE9E72600039B42361B7833708EE70BB0F0BDC0465F25000070250000C9B28218904204D003788B4202D00130F8E70020704700237F
:4021C00010B59A4203D0CC5CC4540133F9E710BD10B5884202D98B18984201D3002305E09B1A013A08D3995C8154FAE7934203D0CC5CC4540133F9E710BD000070B505001E
:40220000002944D00C1F2368002B00DAE418280000F0D8F81E4A13681100002B02D16360146031E0A3420DD92268A018834203D118685B688218226063600C6024E0A2426C
:4022400003D813005A68002AF9D11E689819A0420BD12168711858181960824214D110685268411819605A600EE0A04202D90C232B6009E021686018824203D1106852684A
:402280004118216062605C60280000F09CF870BD08020020032370B5CD1C9D43083506000C2D01D20C2501E0002D01DBA94202D90C23336048E0300000F084F8234B1C6807
:4022C0001A002100002913D00B685B1B0DD40B2B02D90B60CC181EE08C4202D1636813601AE04B6863600C0016E00C004968E9E7174C2368002B03D1300000F051F82060BB
:402300002900300000F04CF8431C18D00323C41C9C43A0420DD12560300000F054F8200007220B30231D9043C31A0ED05A42E2500BE0211A300000F033F8431CEBD10C2358
:402340003000336000F03FF8002070BD0802002004020020F8B506000C001500002904D11100FFF797FF040018E0002A03D1FFF745FF2C0012E000F027F885420ED929002F
:402380003000FFF787FF071E07D021002A00FFF716FF21003000FFF731FF3C002000F8BD002370B5064C050008002360FDF7F2FF431C03D12368002B00D02B6070BDC04611
:4023C000B4020020704770470B1F1A68101F002A04DA891804390B68D018043870470000000000002533640D0A00000000300F40000400400F40000438283E1458045F0133
:4024000019081A04AD08AE043B043F029304A301AF05CEC0EA40EE1004300F4002310F4002330F4008410F40030405060708090A0B0C0E0F101112131415161718191B1C44
:402440001D1E1F2021222325262728292A2B2E2F30313233343500000202020202000000010203040500000000000240000102400002024000030240000402400005024024
:4024800000060240080004400801044008020440080304400804044008050440080604400000044000010440000204400003044000040440000504400006044000000000BA
:4024C00000000000020000000400000008000000100000002000000005000000000000002002002028020020100100201802002038020020BC240000E400002080020020C2
:40250000640200206C020020940200207402002088020020AC020020100200203C250000DC240000D82400003D0E0000250C0000F50A0000E90B0000150E0000040404088E
:402540000808081010101010101010104300232D302B2000686C4C00656667454647003031323334353637383941424344454600303132333435363738396162636465667D
:4025800000000000F8B5C046F8BC08BC9E467047510200000D040000F8B5C046F8BC08BC9E46704729020000B8250000C0000020C00000003801000000000000B802002070
:4025C000010000000000C05D80BB000030000000006CDC02F0000000040404000000FF0F1F0000000802044008020440080204400802044008020440010000001E1E1E1EE0
:402600001E01000001000000020202020200000000000000000000000000000000000000000000000000000000000000000000004C250000000000000000000000000000FF
:402640000000000000000000000000000000000000000000000000000000000000000000000000000000000000000000000000001801002000000000000000000000000021
:40268000000000000000000000000000000000000000000000000000000000000000000000000000000000000000000000000000000000000000000000000000000000001A
:4026C00000000000000000000000000000000000000000000000000000000000000000000000000000000000000000000000000000000000000000000000000000000000DA
:402700000000000000000000000000000000000000000000000000000000000000000000000000000000000000000000000000000000000000000000000000000000000099
:402740000000000000000000000000000000000000000000000000000000000000000000000000000000000000000000000000000000000000000000000000000000000059
:020000040003F7
:0200000490303A
:0200000028BC1A
:0200000490402A
:4000000000000000000000000000000000000000000000000000000000000000000000000000000000000000000000000000000000000000000000000000000000000000C0
:400040000000000000000000000000000000000000000000000000000000000000000000000000000000000000000000000000000000000000000000000000000000000080
:0200000490501A
:0C00000000021A1711AA00011A233A6628
:0200000490600A
:0100000001FE
:00000001FF