:400000000080002011000000D1040000D104000010B500F065FAC04670B512222A4B1A6001F0BEFC294801F0BBFD012001F0D8FC302001F0CFFB264A264B1A60264C8025DB
:40004000ED052560254A116802230B431360244A244B1A600022244B1A60244A136808218B431360FA20C00001F066FC204801F0A7FB204A204B1A60204B214A1A60FE229F
:40008000120220490A602049196020490A60204A1A60802212061F4B1A608022D2021E4B1A6042221D4B1A60023A1D4B1A6001321C4B1A601C49082001F032FB082001F08D
:4000C0000FFB256070BDC04630001040001BB7000600008004010B400C020B4078002E402D3E00007C002E4064F02E406CF02E40DC050000007FBB0008030140000001404E
:4001000042FF00800003014040FF00800403014041FF008008010B4000010B402C0101401401014010010140F91A000010B572B60022304B1A6000240FE02F48620013190E
:4001400059000B00411889881A5AC31858880004104300F083F90134E4B2012CEDD926490C3126483C3000F05FF98022D202244B1A60EE221206234B1A60C0229205224BDE
:400180001A6099231B04214A1360214A1360214A136080221206204B1A6020490B783C22934314221343DBB20B701D4A117816230B43DBB21370D82212041A4B1A607E22E7
:4001C000194B1A60C0225203184B1A603E22184B1A604232174B1A60C0221204164B1A600123164A1360164A1360FFF715FF00F05BF910BD6CF02E40F85D0100785E0100D1
:4002000014000B40000002400003024000500F4020500F4030500F4038500F4001700F4000700F400800044000020440080204401802044000030440080304400004044039
:400240001804044010B5064C2378002B07D1054B002B02D0044800E000BF0123237010BD5813002000000000F45D0100084B10B5002B03D00749084800E000BF07480368C1
:40028000002B00D110BD064B002BFBD09847F9E7000000005C130020F45D0100400E00200000000000B585B00B4B1B78022B11D101F036F943424341039312236A46138106
:4002C00003AB0093012393800023044A0021684611F0A4F905B000BD442500204C25002000B585B0124B1B78022B1FD101A813330381104B01930223838000230E4A0021FF
:4003000011F08CF90D4B1B68002B0FD0094B1A885B889A420AD0084A137850780002184301A90FF007FF034B1A885A8005B000BD44250020440E00204C25002030250020D5
:4003400070B50C00282808D002D8012805D043E041280BD04C2810D03EE000221F4B1A60002000F081F901F04FF935E0FFF79AFFFFF7B6FF01F0E6F82EE08B89122B15D147
:40038000081D2E33164A002111F048F900280DD163681B7858425841C0B201F0B5F8104A13785078000218430FF010FFA389162B12D10B4D201D2A332A00002111F02EF980
:4003C00063681B7801221340044A13602B786878000218430FF0FAFE70BDC046302500204C25002010B562B600F08EFD00F0DAFD0B4800F0DDF800F0ADFB002809D100F097
:4004000021FF084B188000F00BFF00F0D7FCFFF767FF02F057F8032002F04CF8EBE7C04641030000440E0020F0B50025002711E0BB00C658F3B2FF22964308E06A008A1822
:400440001478A419527822700135013BDBB2002BF4D10137052FEBD9F0BDC04610B50A00002101F0E9FF10BD0C4B1B68002803D080221206134301E05B005B08074A136027
:40048000074B1B68002803D080229204134301E0044A1340024A13607047C04680033A4008010B40FFFFFFFD10B50323054A1360054A13600022054B1A600120FFF7D4FF50
:4004C00010BDC0463000304030003140000E3F4010B501F06DFF03680C2B00D1FEE7FEE770B50F4E0F4D13E029686B68AC68002202E001C901C30432A242FAD1E8680022CA
:4005000002E0002102C304328242FAD11035013E002EE9D101F052FFFFF764FFFEE7C046010000003C62010010B50E4A136801218B43136000230AE0032B03D89A000A499E
:40054000505800E009489900094A885001332F2BF2D9FFF7EBFD034A116801230B43136010BDC0460000104000000000D10400000000002010B500F08DFA10BD10B50024F2
:40058000064B1C70064B1C70064B1C70FFF7F2FF054B1C70054B1C7010BDC0464F250020482500204E250020342500203C25002010B590B00400142222490BA801F033FF04
:4005C0002023214AD35C002B05D1FFF7D7FF012120231D4AD154002C30D01C4B1C6008AC05AA099206AB089302212181193119805980173919710823137001F055FF162182
:400600006944200002F03AF8002818D1104B0293104B0193052300930BABD82212010E490E4801F081FF002809D101220C4B1A700E3217210B4810F0D9FF00E0012010B0D3
:4006400010BDC046CC5E010074130020382500207902000000700100C0000020C507000044250020E05E010010B502282FD81C4B1B78042B2DD11B4B1B785B072CD4002858
:4006800009D1194B00221A862032596A0A805B6A10325A800CE001280AD1134B96221A86C822D200596A0A805B6A8022D2015A800E4B18700C4820300EF094FB00280DD1DF
:4006C000084A117804230B43DBB2137006E0012004E00420FF3001E00420FF3010BDC046442500204F250020480E00204E2500207047C04603784078000218437047C04625
:4007000070B5050083890F2B1FD1043031332A00002110F083FF041E11D16868FFF7EAFF830706D50A4B1B68290082204000984705E0074B1B6829000620FF309847054AB4
:40074000137801218B43137000E00024200070BD382500204F250020024B00225A701A707047C0464C25002010B582B00400FFF7C7FF0A4B1B78DB070ED4002809D001A9FA
:4007800012238B70A3890B80C87020680FF094FC02E020680FF01AFD02B010BD4F2500208379002B07D000200BE0C25C002A07D10133DBB200E00023052BF6D9002000E084
:4007C00001207047F0B583B004000D009E4A117801230B43DBB21370272800D1CAE013D8062800D18AE005D8012825D0052800D180E017E1242800D1B4E0262800D1C1E065
:40080000212800D00EE18DE0422800D1F6E009D8312800D1AAE0412800D1DBE0282800D000E1ABE04C2800D1F3E0FA2800D1F4E0432800D0F6E0E4E001AE072737700023C1
:400840007370300003F0D2FE377001237370300003F0CCFE01F024FE7C4B1E683000FFF79FFF00280CD0300001F030FE774E00213068FFF73DFF30680121FFF739FF2AE0EE
:40088000734B1F78734B18788001FC263601020032403F21394011436F4B1B781B03F8225202134019436D4B1B785B04FE22120413400B436A4E33701A0A72701B0CB37066
:4008C000300001F003FE00213000FFF711FF01213000FFF70DFF00200EF016F90222614901A801F0A0FD01A80EF02CF904225E4B1A7097E02A785D4B1A7093E02B78002B48
:4009000000D08FE06B78002B06D1594B0022DA809A80584A1A606B604B4A137801218B4313707FE0484B1B789B067BD4524B1B78102B02D10522504BDA70504B18784E495E
:400940000EF00EFA01AB1880002804D04C4B1B6801A9362098473C4A117801230B43DBB213705FE06A78474B1A705BE002223E4B1A7057E002223C4B1A7053E004223A4BAE
:400980001A704FE0384B1B78022B4BD02E4A1278D20747D52C4A1278520708D50322324B1A70294A137804218B4313703AE0264A1278120708D504222B4B1A70224A13782C
:4009C00008218B4313702DE0032B2BD10422264B1A7027E0294E02222900300001F023FD0022224B1A7031789E318900264B591801310432254801F016FD13E0FFF7ACFEB1
:400A000010E06988162900D9172128880FF05EFB08E02800FFF7A8FE04E01D4A117801230B431370084B1A7811231A4209D0064A137801218B431370114B1B682900200044
:400A4000984703B0F0BDC0464F2500207C0E00207CF2FF0F7DF2FF0F7BF2FF0F78F2FF0F800E0020E4600100442500204825002098130020400E0020440F00204C250020C1
:400A8000382500203C2500200070010040250020342500207047C04670B5154C2368DBB2144A13700F2083431900134D2B780F2213400B43E13293432A7882431343236081
:400AC0000E4A0F4B1A600F4A0F4B1A600F490B688343062213430B60013000F00BFE0C49102000F01DFE0321102000F02BFE70BD00FF28405025002062F2FF0F000200016E
:400B0000080028400008A0010400284000040240C112000010B500F0BFFD00F093FD0021002000F09BFD0021002000F0C1FDFF2000F07AFD402000F0A1FD044A13680449E4
:400B40000B431360102000F0CBFD10BD0400284000100880024B1878012318407047C046A01300204000024B181880887047C046A0130020F8B5104F3E5C3818037A5D00ED
:400B80005D19EDB29B00DCB201F013F8B300FB181E6932680F21A1408A4311000422A2400A43DC6A23680721A9408B432360326001F003F8F8BDC046F4600100F8B5194AFF
:400BC000145C13181F7AB900C9B27D007D19EDB2154B185CA300D3181E6933680F228A4093433360022800D10020012801D1002600E0062600F0DDFFA4000A4B1C19E16A66
:400C00000B680722AA4093431A003300AB4013430B6000F0D2FFA16C0B680122BA4093430B60F8BDF46001007425002010B5002403E02000FFF7C2FF0134042CF9D910BD56
:400C4000044A11684002C023DB001840084310607047C04604002840CA0807231940063B8B40825C134201D0012000E00020704710B504000134E4B2052C06D0210004482C
:400C80000430FFF7E9FF0028F4D0200010BDC0464C0F0020F8B50400324B1B1864229B5C9B00314A9D5801003048FFF7D5FF304B9D4203D88540FF231B041D4300F0ECFC29
:400CC00000F0C0FC2B4B185D013880B2002100F0C5FC294B185D013880B2002100F0E8FCFF2000F0A1FC402000F0C8FC102000F001FD80225202214B1A60204B1B681B0C08
:400D0000FBD101221E4B1A60102000F0FDFC102000F0E6FC102000F0EDFC1A4801681A4B19401A4B1B5D1A4A125D120413430B430360184F3E68184B1E40184B1E431020A5
:400D400000F0CEFC2000FFF715FF00F032FF04003E60002000F024FF084B1D60200000F02CFFF8BDF46001004C0F002054250020FFFFFEFF7C2500205C2500200C0028409F
:400D8000140028400800284000FF80FF642500206C25002004002840FF1FDFFF2000200010B5054B00221A70C2B29A7381221A70FFF770FF10BDC046A013002010B50C4C30
:400DC00000232370FF33A373A07BC0B2FFF750FFA073A37BDBB2042B08D8217801230B43DBB22370A07BC0B2FFF754FF10BDC046A013002070B50500184B1C68A4B2430005
:400E0000174AD3189C80174B1B1864229B5C9B00154A9A58154B9A4208D801001448FFF71BFF6B000E4AD31804419C802800FFF7C5FE102000F05EFC0E4A11680E4B0B40E4
:400E4000A02109020B4313600C4A11680C4B0B401360102000F044FC70BDC0460C002840A0130020F46001004C0F0020FFFFFEFF5425002004002840FF1FDFFF08002840EB
:400E800000FF80FF10B5CC0807231940063B8B40DBB2002A04D0041922781343237003E0041922789A43227010BDC04670B50600002400250BE03000FFF772FFFFF74AFE51
:400EC0000128FBD03000FFF74DFE24180135002DF1D0A0B270BDC046014B19547047C0467425002010B5002404E000212000FFF7F3FF0134042CF8D9FFF7CEFD0020FFF776
:400F00009FFEFFF793FE10BD10B50B4BDB7B002B04D1FFF7E7FF0122074BDA73FFF7FAFD00F094FA0122044B1A74044A13688021C9030B43136010BDA01300200400284043
:400F4000F0B5002714E00C4BDE5D0C4BDB5DF6181A00002404E08D5CAC4200D22C000132B242F8D301E0CC540133B342FBD301378742E8D3F0BDC046746101007861010082
:400F80004300054A9A5A05495A52081800210173017503495A527047A4130020B41300209425002010B5FFF709FFFFF7D3FD0028FBD1002409E021000548FFF74DFE0028DF
:400FC00002D02000FFF7DCFF0134042CF3D910BD500F002070B5094D14352D180026FF20002308E0EC5C944203D9A64201D2260018000133DBB28B42F4D370BDB4130020FC
:40100000F0B583B004000192009308AB1878344B14335918002C02D0661EF6B200E00026631CDDB20B5D9C462D4B243362465A70002C07D12A4B002624229E544A5D243396
:401040009A7012E0019A013A944207D1895D244B24229954243300229A7006E08E5D204B24229E544A5D24339A7024231C4AD35C834204D91B1A242219498B5403E000212B
:401080002423174AD154164A243253781B1ADBB253709278904204D2101A114A2432907003E000210E4A243291700D490A00243292782420095C501AC9188918000201F0D5
:4010C0008BF8240200196B4600255D5F6843FE23DB019C466044000CC0B203B0F0BDC046B4130020401849004018800880B27047F0B5474680B482B004003C4B1E5C3C4B15
:401100009B5D019342003B4BD75A3B4B5B7A002B08D03A4D9046515B3800FFF7E3FF070043465853E1B2334A354800F009FE6300344A9A5A974207D30021334B1955BD1A88
:40114000ADB20123984603E0D51BADB2002398464346002B15D12D4B9B5D9D4211D92A4B1B5D254A12191279934206D32000FFF707FF0022244B1A551EE00133224A135526
:401180001AE06B469B889D4206D9204B9B5D9D4212D24346002B0FD113029C46194801190B7B66463343FF18BF1A3A0A6300C2520F730022144B1A556B469E88B5420DD9FE
:4011C0004346002B0AD0FF2D04D90E4B1C19FF23237507E00B4B1C19257503E0094B1C190023237502B004BC9046F0BD5861010084250020A4130020680F0020942500201E
:40120000E4250020B4130020882500209025002010B5040000F0A2F82000FFF769FF10BD10B5002409E021000548FFF715FD002802D02000FFF7ECFF0134042CF3D910BD1D
:40124000500F002030B583B00400194B1B181D7B184B1A5C05210020FFF7BCFEFF281FD0154B1B5D0093C8235B0105220021FFF7C7FE010080B26B1CDBB20D4A5219127B74
:40128000002A06D10A4AD3181973551901232B730BE0074CE418217BFFF724FF207304E0034B5D1900232B73044803B030BDC046680F0020A425002084250020FFFF00000E
:4012C00010B5102000F016FA01221E4B1A601E4B1878C0B2FFF78EFD1C4B1B785BB2002B05DA1A4A137801218B43137026E0164C2078C0B2FFF7BCFC20702378DBB2042B8D
:4013000005D8114B1878C0B2FFF7C4FC16E00F4B1A7801218A431A701B785B060ED500220B4B1A7006E00B4AD15C0B4AD1540133074A1370064B1B78002BF4D0102000F0AB
:40134000CFF910BD14002840AE130020A0130020DB13002058250020500F002070B582B0154B1C5C154EC1B2154D009533002200144800F063FD335D295D134A1155DB2BA2
:4013800003D8DB08114A135514E0EC2B03D81B090E4A13550EE0F42B03D85B090B4A135508E0F92B03D89B09084A135502E00022064B1A5502B070BD58610100A42500204E
:4013C00084250020E425002090250020A0250020024A136840218B431360704704002840044A1168044B0B40802189000B4313607047C04608002840FFFCFFFC70B50022FF
:4014000008E00D498B5C5D080C4CA55401335B088B54013203789A42F3D3102000F06AF9074A1168074B0B4007490B431360102000F056F970BDC046642500206C25002014
:4014400008002840FFFCFFFC0002000170B5254B05221A70012159709A702B32DA80224A9A80224A9A60FFF7B3FF002304E099001F48204A885001331A4A52789342F6D334
:40148000002306E010211C4AD1540C391B4AD1540133042BF6D9FFF7A3FF194E114C3100200000F0ADFB174D29000120FFF748FD200000F0B6FB3100200000F0A1FB290071
:4014C0000120FFF73DFD200000F0CCFB2000FFF795FF002403E02000FFF740FF0134042CF9D970BDE4250020980900007C6101000000FF0F4C0F00205C2500207C250020C7
:401500009A0D00006425002004490A68D2B240239A438001184010430860704700020440024B1868800901231840704704020440034A117880235B420B43DBB21370704749
:4015400072000F40024A11787F230B401370704772000F40014B18707047C04602000F40014B18707047C04642000F40014B18707047C04622000F40014B18707047C04656
:4015800082000F40014B1878C0B2704762000F40014B1878C0B2704752000F4010B501E0FFF7F6FFFFF7EEFFC306F9D410BDC04610B513490B783F22934309221343DBB238
:4015C0000B70104C227801231343DBB22370FF20FFF7C0FFFF20FFF7C3FF7F20FFF7C6FF0020FFF7C9FF00F0E4FA227810231343DBB2237000F0E1FAFFF7D0FF10BDC04689
:4016000072000F4092000F4010B5064B1B78002B04D1FFF7CDFF0122024B1A70FFF788FF10BDC046DC130020044B1B68002BFBDB0002034B1843014B18607047000001400A
:4016400040000080034B1B68002BFBDB024A014B1A607047000001404000004010B5064A13680724234000021843CB00FF2119400143116010BDC04600030140044B1B68F1
:40168000002BFBDB0002034B1843014B186070470000014041000080034B1B68002BFBDB024A014B1A607047000001404100004010B5064A13680724234000021843CB005E
:4016C000FF2119400143116010BDC04604030140024B1B68012018407047C0460C002E401F2318401E3B8340014A13607047C04600E100E01F2318401E3B8340014A1360BB
:401700007047C04680E100E01F2318401E3B8340014A13607047C04680E200E001BE704770B504000D001F2802D90020FFF7F6FF1034A40080239B059C466444206825609D
:4017400070BDC04670B504000E00032902D90020FFF7E4FF1F2C02D90020FFF7DFFF03252540ED00063500F024FAA408A400074B9C46644421680323AB4099430B00310044
:40178000A9401943216000F018FA70BD00E400E010B5040006E0084B586800F001FA074B9C46644480231B029C42F4D8024B9868604300F0F5F910BD800F00200080FFFFB5
:4017C00010B5034B1B7B584300F0EAF910BDC046800F0020F0B557464E46C0B483B0040000F0E7F90190E71E2D2F74D83F4B1B78DBB29C4208D83E4B1B78DBB29A463D4B48
:401800001B78DBB2994631E03B4B1B78DBB29C4208D83A4B1B78DBB29A46394B1B78DBB2994623E0374B1B78DBB29C4208D8364B1B78DBB29A46354B1B78DBB2994615E0D4
:40184000334B1B78DBB29C4208D8324B1B78DBB29A46314B1B78DBB2994607E02F4B1B78DBB29A462E4B1B78DBB299462D4BDE5D2F2E09D92A2C07D919222B4B1A600520C3
:4018800000F08EF9192503E0274B1D683F231D40B54206D9234BDA5D234B1A60052000F07FF91F4B9C4664442378DBB21F4A13601F4B52461A601F4B4A461A600520FFF7E7
:4018C0007FFFB5420AD2174BDA5D174B1A60052000F066F902E00020FFF720FF019800F06CF903B00CBC91469A46F0BD40F3FF0F41F3FF0F42F3FF0F43F3FF0F44F3FF0F7B
:4019000045F3FF0F46F3FF0F47F3FF0F48F3FF0F49F3FF0F4AF3FF0F4BF3FF0F4CF3FF0F4DF3FF0FE86101002CFF0B4028FF0B401CFF0B4020FF0B4010B504000F4A116870
:4019400001230B4313600E4A0E4B1A600E4A1368802109020B431360002809D100200CE00120FFF72DFFFFF7B3FE002804D1013C002CF5D1102000E0002010BD60F02E4038
:401980000220000078002E4010002E40034B1868C0231B02184000D00120704700010B4010B50D4B1A6801218A431A601A68022082431A60094A10683024A043203C2043DB
:4019C00010601068093CA043014311601A68802109060A431A6010BD00F02E4000FF2E4070B51D4B1B6801241C40002802D0012816D02BE0184B1968012291431960196817
:401A0000022081431960154B19682E3081432038014319601968093881430A431A6018E00D4B1A6802218A431A600C4A10680725A8430143116011683020814310380143F3
:401A40001160196801220A431A6002E00020FFF765FE200070BDC04600F02E4000FF2E4010B500F0A6F8044A1368C02109020B43136000F0A2F810BD00010B4010B500F0F0
:401A800098F808490A68084B1A408024E40122430A600A6813408022120213430B6000F08CF810BD00010B40FF3FFFFF70B5050000F07FF80400FFF769FF002803D0FFF7E5
:401AC000DDFF012100E0002108482840084A1568084B2B40184310601368012901D1FFF7BFFF200000F069F870BDC0460404040010020B40FBFBFBFF10B5244B1B685B0796
:401B000015D5234B5B685B070ED5224B596A042001401F4C62688A4362605A6A82435A629B69002B00D098470420FFF7BFFF174B1B685B0518D5164B5B685B0510D5154BF6
:401B4000596A8022D2001140114842688A434260596A114A0A405A62DB69002B00D098478020C000FFF7A2FF084B1B685B030CD5074B5B685B0304D5064B1B6A002B00D000
:401B800098478020C002FFF791FF10BD10020B40940F0020E0130020FFFBFFFF000000000230800803D00138FDD1C046C046C0467047EFF3108072B6704780F310887047F6
:401BC000F7B59C180023071C08268025019100922370237800982B432370BB689B6C9847019B984202D22378AB432370013E6D08002EEED12378F82B01D9F8232370F7BD77
:401C000070B5051C0E1C00242B789C4208D2AB68221C281C311C1B68FFF7D2FF0134F3E770BD38B5051C00242B789C4219D2AA6813681B5DDB080F2B00D90F23D16BD2680C
:401C4000C95C1155AA68042B04D9936D906B211C012203E0936D906B211C002298470134E2E738BDF0B5041C002687B063789E4262D2A3685A6C925D0392002A01D10132BC
:401C800003921A6C925D019201992278914251D29A689B69515C0F221140B2000492002205910499019D5A50019B5B000293039B019A9B189D423DD2A768E388A0885843A0
:401CC000FB68595D00F088FA3B68595D00F0FAF9059B5843194B40005A2802D95B084008FAE7BA6904991B0C1B045350A36882085B6B01215855A368C008DB69029F5A551B
:401D00000F22A36849421B6A5855A3685B6A5A55A368986AC1530021D86AC153186B9B68C1535B19197801350A401A703B1C02330293BCE7013699E707B0F0BD0000FFFF0D
:401D4000F0B585684E002B6B925B9B191C8887B0141B0094AC6A1A80A45B6B6A0294EC6A5F5CA45B2B6A03946C6B7F00645C5B180494AC680193645C1B780594009CE40F14
:401D8000A4460F24251C6744009C3D40AC46E51764196C409C4203D2012B05D0013B00E00133FF273F2B00D89F00019D2B7065460F2D29D0002D24D0BC4225D8059C029F68
:401DC00024090094974200D9171C039D954200D2151C009A092A01D8141C01343A1C0A2C14D1EA1B934206D9049A92089A42924152429B1A00E001338268D26953543A1C28
:401E000004E0151C644601E0151C00246746836824015B6A5F5483689F6ABA53DA6A9B6895530F225B181D782A401A7083689B6859180B781C430C7007B0F0BD70B58068ED
:401E4000446BC069655C405CFF213F2801D88100C9B246B2FF24002E01DB4000C4B28D4201D9291C6C08012081439954049B9C5470BD00000160704701607047324B1A78C7
:401E80001202324B1B781A43314B1B781B02314909780B4330498B4201D1072A06D0D42109018B4206D1042A04D102E02B4B042200E02A4B2A490B602A4B1A602A4B1B78BF
:401EC0001B022A4A1278134380229201934202D0002B02D002E0264B00E0254B254A1360254B1B781B02254A12781343244A934205D0244A934204D0052B05D103E0224B1F
:401F000002E0214B00E0204B204A1360204B1B681B09204A1268AA2A15D1012B13D9164B1B780E2B0FD11C4B1B781B021B4A127813431B4A13601B4B1B781B021A4A12781E
:401F400013431A4A1360704759F1FF0F58F1FF0F5FF1FF0F5EF1FF0F580B0000580D00006C002E4074002E405BF1FF0F5AF1FF0F0220000078002E405DF1FF0F5CF1FF0F1D
:401F80000F0F000005050000050F000080002E40EC0F00F0E00F00F06DF2FF0F6CF2FF0F84002E406FF2FF0F6EF2FF0F94002E4010B5FFF705FC10BD10B5FFF7E9FB10BD8E
:401FC00010B500F04FF810BD10B500F053F810BD10B500F04FF8034800F02EF8032000F031F810BDBD20000010B5024800F04AF810BDC046BD200000004870470202000014
:402000002B2070472B2070472B2070472B2070472B2070472B2070472B2070472B2070472B2070472B2070472B2070477047C0460120704701207047014B18677047C04695
:402040000000002010B50400FFF7B3FD044A1368C0218B43A4011C431460FFF7AEFD10BD0CE400E080225201014B1A607047C04600E100E080225201014B1A607047C046F2
:4020800080E100E010B50400FFF7F4FF2000FFF7D3FF0320FFF7D6FFFFF7E4FF10BDC04610B5FFF786FD044A136804218B43136030BFFFF782FD10BD10ED00E010B513F068
:4020C00085FE10BD002243088B4274D303098B425FD3030A8B4244D3030B8B4228D3030C8B420DD3FF22090212BA030C8B4202D31212090265D0030B8B4219D300E0090ABA
:40210000C30B8B4201D3CB03C01A5241830B8B4201D38B03C01A5241430B8B4201D34B03C01A5241030B8B4201D30B03C01A5241C30A8B4201D3CB02C01A5241830A8B42F5
:4021400001D38B02C01A5241430A8B4201D34B02C01A5241030A8B4201D30B02C01A5241CDD2C3098B4201D3CB01C01A524183098B4201D38B01C01A524143098B4201D369
:402180004B01C01A524103098B4201D30B01C01A5241C3088B4201D3CB00C01A524183088B4201D38B00C01A524143088B4201D34B00C01A5241411A00D201465241104677
:4021C0007047FFE701B5002000F0F0F802BDC0460029F7D076E7704703460B437FD4002243088B4274D303098B425FD3030A8B4244D3030B8B4228D3030C8B420DD3FF22B1
:40220000090212BA030C8B4202D31212090265D0030B8B4219D300E0090AC30B8B4201D3CB03C01A5241830B8B4201D38B03C01A5241430B8B4201D34B03C01A5241030B6C
:402240008B4201D30B03C01A5241C30A8B4201D3CB02C01A5241830A8B4201D38B02C01A5241430A8B4201D34B02C01A5241030A8B4201D30B02C01A5241CDD2C3098B426A
:4022800001D3CB01C01A524183098B4201D38B01C01A524143098B4201D34B01C01A524103098B4201D30B01C01A5241C3088B4201D3CB00C01A524183088B4201D38B00C4
:4022C000C01A524143088B4201D34B00C01A5241411A00D201465241104670475DE0CA0F00D04942031000D34042534000229C4603098B422DD3030A8B4212D3FC22890109
:4023000012BA030A8B420CD3890192118B4208D3890192118B4204D389013AD0921100E08909C3098B4201D3CB01C01A524183098B4201D38B01C01A524143098B4201D310
:402340004B01C01A524103098B4201D30B01C01A5241C3088B4201D3CB00C01A524183088B4201D38B00C01A5241D9D243088B4201D34B00C01A5241411A00D2014663464A
:4023800052415B10104601D34042002B00D54942704763465B1000D3404201B5002000F005F802BD0029F8D016E770477047C046014B18687047C046541300200E4B70B556
:4023C00000251E000D4CE41AA410A54204D0AB00F35898470135F8E713F01EFF084B00251E00084CE41AA410A54204D0AB00F35898470135F8E770BD24620100246201004E
:40240000246201002C62010030B50024A24208D0035D651C0C5DA34201D0181B02E02C00F4E7002030BD002310B59A4203D0CC5CC4540133F9E710BD03008218934202D09C
:4024400019700133FAE77047134A1088810703D08107890F401A001D11791030484381B25088820703D08207920F801A001D800040180A494030098980B2CA0701D0503002
:4024800080B2890706D504495422091F09785143081880B270470000A20F00201414002010B501F063FF10BD10B502F03FF80CF091F910BD10B501F05FFF10BD10B501F0A0
:4024C00071FF10BD10B500F05BFA10BD10B50749044609780220002907D1204601F0C6FF002802D120460CF021FC10BD4011002070B504460120002C12D02368002B0FD0BE
:40250000616800290CD0074D06222889208118462968FFF788FF6968606809780170002070BD000014140020FFB585B0002768460E9D07734F481C460078002802D00820FD
:4025400009B0F0BD10990F9801900095029105A807C800F007F90028F2D16946264603AB84460873002C19D0002115E08A00B75A082F09D990198078002805D0083FB752BA
:402580001878401C187005E0002914D00027B75290198770491CC9B2A942E7D360460028CED10F98002809D0109901F08FFA002804D00120C4E701208446EFE701F0F2FEBE
:4025C0002D480021416081600599016021888180022D07D3A1798171A17AC171A1890181218A418100211EE0481C19E082008B00A75AE65ABE46BE4211D26F463E80B44681
:402600001E190296B678BE7001967646E6521719029EBB78B3706646A652019EBE70401CA842E3D3491CA942DED3134822460C3000906846037B0799069800F01BF900282B
:40264000B8D168460B4C007B60700B480C3001F0E5FE0028AED1084907480C3109F060FB0028A7D109F07AFB0028A3D10121217066E700009C0F002008140020F8B505469D
:4026800036480F460078002802D002242046F8BD002F60D000243249002D16D02A89D0070DD02868002808D003881B3BE12B04D24088FB2801D81B2801D2012409E090074A
:4026C00007D56868002804D1F7E70020088108604860002CDAD122482E8906811F481B21801D01804180042101711C490020891C0870F00705D019480622801D2968FFF7E7
:4027000092FE1749B00703D56A68144812788270124D0E46AD1D281F0D60486001F0CCFE284601F0BBFE308910F0B0F830890FF0A1FA28880FF0A4FA308910F011FA0346B6
:402740001033FFF781FE1F21C018890140183880A91F88809AE7012498E700009C0F002014140020FFB58446384F1C460020BB883F78054602460646002F11D100290ED06F
:40278000029999420BD36146002908D0002C06D00A99002906D02E4B0B99994202D2012004B0F0BD002144E0AB001F19BF78002F3BD0E35A002B38D07B43591889B22B008D
:4027C00000F04AF8050410161C253100A7782388BC46FF27233BEB37BB4222D26346032B1FD322E0A388002B1FD0302B19D31CE02389002B19D0282B13D316E0A289002A0C
:4028000013D01346134F233BBB420AD20DE0268A002A0AD033460F4F233BBB4201D2964203D901200EE0002001E000280AD16D1CEDB2099B9D42B7D31C2463435B1802992D
:402840008B42ACD89642AAD8AAE700009C0F002079020000BAFF000030B47446641E2578641CAB4200D21D46635D5B00E31830BC18470000FFB583B0002469460C801F46B2
:4028800006468C80002806D00598002803D004983043800701D0012466E0002FFBD03449049809888842F6D3FFF79EFBFFF78CFB00F012FC002855D100F07AFD002851D118
:4028C0002C49084601F036F905042D0C4AD12A480499066081800021C18007810C98007AC00704D0684601F076FD040007D10C98007A800703D501A801F082FD0446BF1DD5
:40290000FEB2002C20D13146059800F05DF804001AD110F033F9040016D16A461088928808368518144AF1B29088D288AEB29319984207D3401B801A80B201F0EBFB0500F8
:4029400007D000E0FF25012400F05EFA002D04D008E0F8B200F01CF9F6E700F081FA07490120087000F0CAFB204607B0F0BD0000A00F0020B52A000020140020A80F0020EE
:4029800010B503480078012801D101F065FA10BDA80F002070B5084B0446DA889E8800205518B54206D81D68AA182260DA885118D98070BD032070BD201400200148008964
:4029C0007047000020140020F0B587B007460D4600208900009006916846FFF7DBFF844600285DD1304800990160002117E02E4B88001A680629115406D22C4C04196678F6
:402A000082185670628805E0C419203CA67A8218567022891B68C018491C4280C9B2A942E5D300242DE0601CC2B2059025E01E4FA300396896005818408871180396049073
:402A40004E88B04217D938466F46FE80B6464F786E4677710297049F4F800168039F5E18767879184E700168764659184E800068029F18184770521CD2B2AA42D7D305984C
:402A8000C4B2AC42CFD36046002809D168460699FFF780FF8446002802D1054900980860604607B0F0BD0000AC0F002050620100B00F00207047000010B5002809D0054951
:402AC0004A68002A05D0011F08788000105801F0CFFA10BDAC0F002010B50446FFF76EFFC0B2801DA0420CD307484068002808D0A100405801F02EFA002801D00470001D26
:402B000010BD002010BD0000AC0F0020F8B516460D460446FFF752FFC0B2801DA04203D20020C0430090F8BDB2B2E9B2684601F037FA0099481C03D0024AA000526811503F
:402B40000098F8BDAC0F0020F8B50746FFF736FF801DC6B20A49002005460C680DE06178002907D06188B94202D32078FFF7B4FF002804D1241D6D1CEDB2B542EFD3F8BD2D
:402B8000AC0F002010B5002801D0FFF795FF10BD70B506460948002504680BE06178002905D062882078121D0023FFF7AFFF241D6D1CEDB2B542F1D370BD0000AC0F00206C
:402BC000FFB581B00A9F16000C4620D000F0F2F8054604281BD0002F0CD03846FFF7B4FF20492A0151184860002810D03A460499FFF719FC1B4928010E50461877810198D2
:402C00000570200406D47D20C000444304E0FF2005B0F0BD6404640C00F0BAF80746042807D000F04FFAA0420BD800F04BFA201A03E0204600F0AAFA0020F060357200208D
:402C4000E6E700F03FFA009000F0B6FA00980121001B009000F0ECF802493A0151180098C860E6E72C140020F8B5060116483418217A042903D0E068002802D017E00020C7
:402C8000F8BD00F01FFA054600F096FA00F0A0F804280CD001010C480F18F8680021451900F0C6F80020F860284600F06FFA6068054D002801D0FFF765FF0420207200206F
:402CC000A8516081E060DAE72C140020FEB500266A46304601232549050169180D7A042D02D0C96800291BD000211154401CC0B20428F0D300246846005D002830D01B48B5
:402D0000210108184189476805680291002101604160042241810272C160002E02D015E01354E3E700F054F804280ED001010F4808180190C6680021304600F079F8019803
:402D40000021C160304600F021FA0126002D07D038460299A847002F02D03846FFF712FF641CE4B2042CC6D3FEBD00002C1400200EB5002005216A460090118150810348E6
:402D80006946006810F05FFD0EBD0000B40F0020074A0020010189180B7A042B02D0C968002903D0401CC0B20428F3D3704700002C1400200549002002015218127A042ABF
:402DC00003D0401CC0B20428F6D370472C14002030B50A4B04200A4C00210A011219157A042D06D0D268002A03D09A4201D808461346491CC9B20429EFD330BDFFFF000038
:402E00002C1400207047000030B50020074C05460423020111190B72A5504D60401C4D81C0B2CD600428F4D330BD00002C14002030B5094C00231A011219157A042D04D025
:402E4000D568002906D02D18D5605B1CDBB2042BF1D330BD2D1AF7E72C140020002070471CB5002469460C70142001902346054A054810F0EDFC04480068401C00D1FF2485
:402E800020461CBDDD2E0000B40F00203EB5124A0146FF2000230124126800290DD0012914D0042908D104206946009308814B81104610F0C8FC80B23EBD6846009304818C
:402EC00043816946104610F0B9FCF4E768460093048143816946EBE7B40F002070B545890468416800890300FFF7B6FC08280509091E22282628002007F0BCFB1EE002295B
:402F000008D0C8B22A4621460EF000FE2046FFF739FE13E002202A4621460EF0F7FD2946204600F00DF809E0002010F08BF905E02046FFF7CBFE01E0FFF778F8002070BD06
:402F4000014B0022DB681847B80F002070B5448905680089022803D0032809D0FF2070BD2246094C0023A46829460120A04708E0FFF7A4FA241DA2B200232946022008F005
:402F800082FD002070BD0000B80F002070470000024800214160018041807047B80F002070B50C46002186B016460391012802D0022859D116E003A9012008F0B9FD012814
:402FC0001BD1039D324621462846FFF72CFA0095287801900220694608814E816846FFF7B5FF41E0214D002B686809D0049004A9022008F09DFD01281DD0022006B070BD22
:40300000002812D0298840182146FFF70CFA28880024801980B228806988091D884206D12C801348FFF792FF03E00320E6E788421AD96C6018E004986860E278A37811024D
:4030400019430B4A698000231060E3565360032313815181A1788170E178C1706178417021780170042028800020C7E7B80F00206C1400203EB515460C46022803D0042899
:403080000CD000203EBD0091019002206946088107484A81006810F0D6FB07E00EF036FD044B0022DB6829462046984701203EBDB40F0020B80F0020014AD16090607047C1
:4030C000B80F0020034801688068081A0A214843000970477814002010B5FEF779FF482204490548FFF79FF903490120C870002010BD00006C6201007C18002010B5FEF776
:403100005FFF10BD70B5134C2368002B08D0207B1149C20705D04008400020738868A08070BD88680B4AA18880B29268814203D90A4D691A091802E0814202D2411A5118F6
:40314000A160A080A0689842EAD310F099FB00F013F870BD78140020C0102E40FFFF000010B508461946FFF7A7FF10BD704710B5FFF780FF10BD00000348002101604160E4
:403180008160C1607047000078140020024610B5FF20002A0CD0FFF7EFFF064C0321207B0843207310010A21FFF712F82060002010BD00007814002000B504480A2180683C
:4031C00048430209FFF7D8FF104600BD781400200248007B8007C00F704700007814002010B54B490868002802DA4A4B01221A70022290430860484800694549C00B4031FE
:40320000096A0246C907C90F0A4259D0012000F0E5FA3F480E216C30FEF72EFE3E4820218430FEF729FE3C4814219C30FEF724FE3948FF21C131A430FEF71EFE3648FF210A
:403240002F31B030FEF718FE33483449BC30FEF713FE31483249AC30FEF70EFE30492E48491CB430FEF708FE2B482E49B830FEF703FE29482C49CC30FEF7FEFD26482B4999
:403280000830FEF7F9FD24482949A830FEF7F4FD214828498830FEF7EFFD1F4826498C30FEF7EAFD1C481921C9029030FEF7E4FDFEF7E4FDFEF7A0FEC0B2022812D01FE089
:4032C00000290BD0002101420AD0114801216030FEF7D2FD0120FEF76FFE97E70121F2E7FF2010BD15491648FEF7C6FD14481549001DFEF7C1FD124800210830FEF7BCFD76
:4033000054200449C043891C0870002010BD000000F02E40C80F002000002E40320300002F3F00003102000010520000EC160000FA12000031D000003AE3000099560000A9
:4033400080012E40F80F000070B50646581C80B245086D00002408E0304600F0C1F81055000A1119A41C4870A4B2AC42F4D3D80705D0D0182038D15CC47FD454C17770BD4E
:4033800030B50A4C002100195B1E07E0541864782502545C2C430480891C89B29942F5DB994201D1515C018030BD000000102E4010B5FF2000F012FA0F49FF2048700E48F0
:4033C0001021801D41800121417001700A490020C91C4870FFF704FF04000AD100F02EF907210648FEF746FD044807211830FEF741FD204610BD0000C80F0020CC112E40E9
:4034000070B5002405465B1E0AE0284600F068F8010A161971702D1D1055A41CADB2A4B29C42F2DB9C4203D1284600F059F8105570BD000070B500210A4D5B1E0AE054188E
:4034400064782602545C344346193480001D891C80B289B29942F2DB994202D1515C4019018070BD00102E40F0B50599091FCFB200217E1E0BE0541864782502545C2C4335
:40348000164D45192C80001D891C80B289B2B142F1DBFC0712D01C78515C24020F4A0C4381180C809C785D78001D210280B2294384182180001D80B2D9780CE059781A78A5
:4034C00009021143054A84182180001DD9789B78090280B2194380180180F0BD00102E40014940180088704700102E4010B50B490020487000F0A2F8002000F095F90020EB
:4035000000F082F907210648FEF7B4FC044807211830FEF7AFFC002010BD0000CB0F0020CC112E4010B50C48007801280FD100F095FF00F0DDF8002804D10848016A49088B
:4035400049000162054802213030FEF795FC02490020C91E087010BDCB0F002040F02E4010B50B46062812D006DC01280CD0032801D1FFF7BBFF10BD0A28FCD00B28FAD197
:4035800005480078107010BDFFF712FF10BD1146184600F065F910BDCE0F0020F8B5244DAC6A0127A007234E002816DA307806280ED1286A384328621F480069F903084369
:4035C00081B21D481030FEF757FC042000F006F9174802212830FEF74DFCE00718D000F0ADFF01280FD1002000F0FAFF062000F0F5F81049FF20C91E48707078002802D106
:40360000686B384368630A4801212830FEF732FCE0050BD53078042802D1052000F0DEF80348FF2101312830FEF724FCF8BD000040F02E40CB0F002000002E4010B503217D
:403640002348FEF719FC0120FEF7B2FC20483038406A204C80076178800F890001431C480C38FEF709FC6078002808D0401E022181401820FEF796FEC000083800E0B8203A
:4036800081B21548FEF7F8FB1348032109021438FEF7F2FB10481149B830FEF7EDFB612189010F48FEF7E8FB0D480321001FFEF7E3FB0C490C48FEF7DFFB0B480B49603806
:4036C000FEF7DAFB084801218838FEF7D5FB10BD70F02E40CE0F0020D8102E4090890000041E2E40FF0F000058122E4020900000044800684007400F022801D000207047C0
:403700000120704700010B4000B5FFF7F1FF002805D009480168C908C900016000BD0748016A490849000162054801690122D2039143016100BD000000010B4040F02E4018
:4037400000002E400849087806280BD148780749002803D1486B400840004863C86A01221043C86270470000CB0F002040F02E400148007870470000CB0F002000B50300C3
:40378000FFF76AF8080D050D0B070507090D012000BD032000BD042000BD022000BDFF2000BD0000074A9168D26889B2064B92B2994204D105498A4201D1012100E00021E9
:4037C0000170704780002E4033D000003FE300000149487070470000CB0F002010B50446FEF7F2FB072C01D9FF2C01D102480470FEF7E6FB10BD0000CB0F00200149487083
:4038000070470000C80F002010B5064A012805D01921C9021046FEF72FFB10BD1D21C902F8E7000090002E4010B50A4A141D012808D009491046FEF71FFB08492046FEF7EC
:403840001BFB10BD04491046891CFEF715FB0349491DF3E788002E4031D000003AE3000070B50C460546FEF7C7FBC0B202280E49287804D0FF2810D04C280CD810E0FF2822
:4038800009D10A4AD0680004800F032801D0087807E09069000A553803E00878207070BD4F382070087070BDCA0F002000002E40F0B50122002834D0002932D0042442064A
:4038C00000D00524792342065B06D21800D0641C034600221EE00C2516466E43124D00277519AF72104F002ABB51696007D0661EB24209D10D4E86197606760E05E05E06AA
:40390000760E8027BE1B00E080269B198919521C2E81D2B2A242DED303480549006B002288611046F0BD00000417002079020000D40F002018B50020694608700A480069D7
:4039400000280ED0132149014018047E684604704F21C900054800F059F8A04201D0012018BD002018BD0000D40F002088140020074900200C2242435218927A012A05D00A
:40398000401CC0B20628F5D3002070470120704704170020F8B50E000446154609D0194F19497868A04202D94018A04201D38D4201D90120F8BD31462046FEF725FD002810
:4039C0001ED02A4631462046FEF72DFDE8B200210C224A43D21913895568EE18A6420BD90126641B1B1B9672834209DA1469C01A044AC0B220329676491CC9B20629E7D317
:403A00000020F8BD0417002079020000034610B50020024604E09C5C2018521CC0B292B28A42F8D310BD000070B500F05FF8084C064A216907480D46FEF7F5FC054928460B
:403A4000FFF736FFFFF776FF207070BD79020000D40F002088140020002070470020054A002902D0012902D002E0906000E0D06000207047D40F002070B5084C154608469E
:403A80000549E26889182A46FEF7CDFCE0684019E06028B270BD000088140020D40F00203EB50A226946FFF7E7FF044606480A2200686946FEF7A8FC002802D00020C043BD
:403AC0003EBD20463EBD0000D80F0020002802D0044A914201D2FF20704703494A6108610020704779020000D40F0020024800218160C16070470000D40F002070B5074C4B
:403B000015460548A26880182A46FFF743FFA0684019A06028B270BD88140020D40F002010B503490A220968FFF7E8FF10BD0000D80F002010B50F4A002313600E4A13608E
:403B40000E4B18600E4801600E49012008600E490860000290600E490C4808600D4914300860FF381538506000F0BCF800F0CAF9002010BD08100020F00F00201C100020FC
:403B8000201000200C100020FC0F00204C1800200010002014100020014610B50020002910D0094B1A689C685118A14209D25868196080188A0704D08A07920F891A091DEF
:403BC000196010BD002010BDF00F0020F8B50024164E671E321F3D463168136806E01422624310328A58521C1BD0641C9C42F6D36A1C14D02C461422544322460C32885045
:403C00000C214843FFF7C8FF3168002808510AD031680020103408517068401C70602846F8BD2546E4E73846F8BD000000100020F3B50026F64381B000281BDB1E490968D7
:403C4000884217D80299002914D01B4F142204463F1D54432546396810354859401C09D0FEF7B2F938682F1F4159C359994203DBFEF7A6F93046FEBD21460831009146584E
:403C800001590C20704308180C220299FEF7CBFB0948761C001D0068C159B14200D100260549009A091D865008684159491C4151FEF786F90020FEBDFC0F0020002803DB56
:403CC00007490968884202D90020C043704704491422091D096850431030085870470000FC0F0020F0B500200D4A451E0346171F50600FE014260146714314680E1DA351E8
:403D00000C461668083433511668083435511468401C635039688842ECD30020F0BD000000100020F3B50026F64381B0002841DB2349096888423DD8029900293AD0204F8C
:403D4000142204463F1D54432546396810354859401C2FD0FEF738F93868415900292BD0211D009146580C21005971430F46C1190C220298FEF757FB11480021001D00681B
:403D8000761C00590C34C0190160416081600C48001D00680159B14200D100260849009A091D865008684159491E4151FEF708F90020FEBD3046FEBDFEF702F9FAE7000042
:403DC000FC0F0020FEB504460D4600201E49089E0860471E009001900290002C11D0486885420ED2002A0CD0002E0AD0642E08D808460C3001681C2068430C18207A0028F7
:403E000001D03846FEBD0120226020721846FFF7DDFE6060401C13D06681A6810A4827610C3067610179A94200D205710021684601810A462846029B00F040F82846FEBD7F
:403E400000202072DDE700000810002038B50124009400F039F838BDFEB50027164EFF433D4600240EE01C20316860430818017A002906D04068FFF721FF002801D025468F
:403E800003E0641C3079A042EDDA681C12D01C2130684D434419FEF797F869466068FFF741FF0546FEF78CF8002DD9D1216868468847D5E7FEBD00001410002038B5002487
:403EC000009400F001F838BD1FB500220C49541E0A60002811DB496888420ED808491C220C31096850430818406801A9FFF7A0FE401C02D0002004B010BD2046FBE70000C7
:403F000008100020F0B50021114A4D1E174611710C3F0B46BD6016E008461C2460431668041D355114680646235014680836A3551468361DA353044616680A343353183053
:403F40001468491C255078688142E5D30020F0BD1410002038B500210091002811DB0F49097888420DDA0D4D04010C3529680859002807D0201D0818694600F06FF9002825
:403F800001D0002038BDFEF71FF828680F34015D491E0155FEF714F8009838BD24100020F7B582B0002502986E1E06602E48D21C024017462D4A2C4610460C380178106839
:403FC00005E02301C358002B0FD0641CE4B28C42F7D3711C28D03401211D40180191039900F02AF900281FD101E02646F1E71F48016820460C300F521C4803990268204674
:404000000E30115419480399026820460F3011540398784300F0A0F8144900280968085102D00024009011E001251AE00F48016801980818009900F02CF9002801D0012562
:4040400002E00098C0190090641CE4B203988442ECD3002D05D10298066004480179491C0171284605B0F0BDFCFF000030100020F8B50D4600216A468C461180002839DBEC
:4040800023490978884235DA214B04010C3319680A59002A2ED020460C300B5A801C0E5C184670438018954224D3854222D2002006E007465F43BF18AF4206D0401CC0B2DE
:4040C000B042F6D36046002814D0114E271DC8190C366A46294600F006F900280AD168460088012808D030682946C01900F0D1F8002803D00120F8BD0020F8BDFDF764FFAF
:4041000030680F34015D491C0155FDF759FFF3E724100020F8B50F46002400F031F8002817D10C4900220B460C334A600EE021011D680E466A501D680C36AA53B61C1D6853
:404140000F31AA551D68641C6A54E4B2BC42EED31A71F8BD2410002000280BD0C01C074A81085068890053884118994203D8936851601818704700207047000024100020B2
:40418000F8B5064600200F4D009029700C0121466846FEF7FFFB00280CD129460C3100980860301B001F84B221466846FEF7F2FB002801D0FF20F8BD6C800098A86000208F
:4041C000F8BD000024100020F8B5002827DB19490978884223DA174C05010C342168485900281CD028460C30085A009028460E300E5C401C0E5420682F1DC01900F064F8E5
:4042000000280CD12068002445590EE0094829460C300068C01900F03CF8002801D00120F8BD00982D18641CE4B2B442EED30020F8BD00002410002030B50D4604000BD027
:40424000A800FFF789FF6060002805D000202570C0436080002030BD012030BD70B50D46040005D0002D03D00220205E002801DA012070BDFDF7A8FE0221615E6068890099
:40428000405828606088401E6080FDF799FE002070BD70B50D46040007D0002D05D002212078615E401E814201DB012070BDFDF78BFE6088401C00B26080616880000D50CD
:4042C000FDF77EFE002070BD10B5040009D0227800216068FEF7B0F80020C0436080002010BD012010BDF0B500231D46002802D00224045F0AE00120F0BD46689F00F6595F
:404300008E4201D1012503E05B1CDBB29C42F4DA15700020F0BD00000148007870470000381000207CB505460024FEF7C7F8A8796946087000A8062229460130FEF773F884
:404340000021684606F080FC0C2806D0072806D01F2806D0122806D006E0022404E0042402E0272400E0012420467CBD01480121417270478419002010B502280BD0032850
:4043800002D0042809D102E000F0B8F905E000F063FAFF2801D100F073FAFFF7E9F9FFF7EDF910BD10B500F09BFAFFF7E1F9FFF7E5F910BD70B504460025FEF77FF8002CB2
:4043C00006D0A079012803D8214602F087FE00E00125284670BD01460120002902D05020088000207047000001460120002903D00248007808700020704700003A1000203A
:4044000001460120002905D0034854220078504308800020704700003A10002010B502460D49FE204870032410460FF02FFD002810D10FF0D3FC00280CD107F0D5FB0028D5
:4044400008D100F05DFC002804D106F0A3FE002800D10024204610BD3810002002480021018280210180704700102E4070B50025044600280ED0A07901280BD8FEF71EF8BF
:40448000A0790028204602D003F07AFA03E003F04FFA00E00125284670BD0000014610B50120002904D006220248FDF7BCFF002010BD00004410002001460120002903D04C
:4044C0000878024908700020704700003A100020F0B589B015460F4606460124FDF7EEFF002E20D0002F1ED0002D1CD0102239466846FDF798FF1022314604A8FDF793FF3F
:40450000102168460FF0E4FB102104A80FF0E0FB2B46102204A9684604F008FB102128460FF0D6FB0024204609B0F0BD10B506F007FB04F0EDFC07F09FF910BD0148007AFA
:40454000704700008419002038B504460120002C20D0617801291DD800290BD0FF25E535FDF7ACFF0C4828180088C0B22070072803D00EE0FF25CD35F2E700206946087026
:404580006846FFF70FF969460878012801D108202070002038BD000000102E40014A0021926810473810002008B500226B461A7026280CD0094A342852680BD0352805D1FA
:4045C000900703D50021352007F0EAFB08BD19462620F9E7D007F9D03420F5E738100020014908727047000084190020F8B504460120002C26D06178012902D92278092A5B
:4046000020D8002905D0FF25E5352078092803D004E0FF25CD35F8E708202070FDF74EFF2078114F114E08280DD00020FFF7FCF870780128207810D00D4969180880FE2054
:4046400070700020F8BD0120FFF7EEF80720B8810549203188800120F2E7B8810248217820308180EBE70000C0112E403810002000102E4070B50E46050001D0002400E0D0
:404680000C4C002C11D0E28A500609D5D107C90F022003F07BFAE08A40218843E08204E0D107C90F012003F071FA3146284602F0D7FE70BDE4180020F8B505460020044659
:4046C0000D4E009013E022466946284601F00AF90098002801D00FF0BBFBA878214602F011FCA878214602F0FFFB641CE4B2308AA042E8D8F8BD0000B0190020F8B54E4CCD
:40470000FFF736F8012847D14C480078002843D002F02EFE00283FD005F014FF00283BD0474E7078C00703D000F028FD012833D0307E00287DD17078002500285BD000075A
:4047400006D540488089070B00F02EF9384370D13B484178684604F027FA21793A4CA2788918C9B2814262D802F002FE002860D0344860300789324E203602F0B3FB68468C
:40478000008802F0EFFB02F0A3FC30490988884203D10120FFF722F84BE02D49012008702748807B00281DD0002F1BD04036F07E002817D123486030008821494000C03146
:4047C000498981420AD26078002807D103F01CFA2049088A03221202104308822078002800D0257002F002FC0120FEF7F1FF00F025FC174C15E002F0BBFD002819D01024E3
:4048000002F066FC214602F025FB02F0ABFB104C0120207002F0EAFB0020FEF7D9FF00F00DFC20780128B4D1FEF76EFF25700020F8BDFF20F8BD0000BC180020C80F002078
:40484000C4180020A0102E405E100020701000204A100020E0112E4010B50848FF244078002809D102F084FD012805D1FEF75AFE0720FEF7B3FF0024204610BDC418002045
:4048800038B5FEF775FF012801D0002038BD02F06FFD00280AD0114C6078C00703D000F06DFC012802D0207E002801D0FF2038BD617800290FD0684604F076F9022806D96A
:4048C0006846008802F04EFB012002F099FB0320FEF784FFD9E70020F7E70000C418002038B51E4CFEF744FF042813D0052811D0062812D003282AD007280AD10020694691
:40490000087002460120FEF72BFEFEF731FF0128FBD138BD00F0B2FB38BD02F089FB00F0ADFB02F00FFC8007800F0228F4D10C4841880029F0D05B21095D0029ECD10121D7
:404940000170A07D0140022003F020F938BD02F073FB0120FEF742FF38BD0000E41800205E100020F8B50646002403F08DF90546304603F0A3F903460A480021068A0DE0D0
:4049800001228A401046174628401F40002803D0002F01D1224394B2491CC9B28E42EFD82046F8BDB019002070B500252C460A4E03E0002C01D0002000E030460079002863
:4049C00003D02046FFF7CEFF0543641C2406240EEFD0284670BD0000E41800201CB50020694648706846FFF7AFFD01AA69460A20FEF7B6FD6946042008561CBD70B50D46CB
:404A000001F056FB04000BD02079002808D0FDF755FDE178A0782A4602F0A8FD002070BD022070BD0148007870470000BC1800204030C07E002800D00120704700B500F0D3
:404A400001F800BD902148430749084A40186030417F491CC9B24177D289914201D300214177C8B270470000C4180020B019002013B501F01DFB04000BD001F0BAFE0028F0
:404A800007D0214601AA0A310620FEF769FD00201CBD02201CBD000010B50C4601F008FB00280AD001F0A5FE002806D0224604490A20FEF755FD002010BD022010BD0000BC
:404AC000A5180020F3B581B0074601460026029803F0D2F80446002F01D0002500E0154D002D21D0284601F019FB032C04D13946029803F01DF906463846029902F0F4F943
:404B0000032C06D0002C10D00121384601F00CFC03E03146384603F011FB284602F09AF80221284602F0B0F8FEBD3846029902F0DBF9FEBDE418002010B5044600F066FA07
:404B4000002804D103F0C4FF002801D00C2010BD2078611C02F01CFEFF2801D01F2010BD02F062FEFF280AD02178621C02F044F9044821780068026B601C904710BD0720D1
:404B800010BD00008410002010B503F0A1FF002801D00C2010BD02F0DDFD03480068C06A8047002010BD00008410002070B50D46044610210FF08CF81021601806460FF0AF
:404BC00087F8334610221946204603F0AFFF102130460FF07DF802202870204606F010FA70BD0000F8B504464078217802028006870FE0781143A67809050002090D06431C
:404C0000084601F055FA00210546F2B2002812D0002C10D0022F0ED0032F0CD0002A0AD00279092A07D0002A05D0134A5A23527E1B5C9A4207D82889002106F016F9204602
:404C40000FF006F9FF21002914D10C48224600682946436930469847C0B2FF280AD128464030817EF2B2491C8176FF232146284600F0E3F8F8BD00007C180020A010002028
:404C80000020704710B5044603F022FF002801D00C2010BD2078611C02F07AFDFF2808D002F0B2FC044821780068426B601C904710BD1F2010BD00008410002010B500F05C
:404CC0006BF906F067FA002010BD10B5044600786178E2780843A17811430843217908436179084305D003F0E5FE002803D00C2010BD122010BD204602F042FE002010BD22
:404D000010B5FDF779F902F0E1FF044804F044F802F084FC012000F003F810BD8C180020F1B586B003A8009005A8019028489F22817A114081726846FDF7DAFB002845D171
:404D400069460989C90705D0224806990068C2686846904769460989890706D5002835D11D480068816A0698884700282ED11B4E0025757075737571F575357675767575DC
:404D8000B570F570B5713746F5730120D03738731F20F880FF2130467972A0300176457600F0E8FA00242046069901F0CDFC002803D1641C2406240EF5D0FD720749BD7211
:404DC000B573C0310D704D704D600D7207B0F0BD7C180020A010002084100020C418002070B505460E46084602F04EFF0446304602F064FF0121A9400A46224001400A43EB
:404E000001D0012070BD002070BD10B50446084602F054FF0121A140014201D0012010BD002010BD10B5FEF7A3FC032804D102F003F90120FEF7D2FC10BDFEB51C46164609
:404E40000F46054601F006FFA878FFF7F7FD02460190334639460094284600F00DF8002808D1A8780199FFF705FCFF2C02D138460EF0EEFFFEBD0000FFB585B005460E981C
:404E80000C46FF2810D02B49C00009680A5840180179C0795278814201D9012601E09006860F6846038108E06078A1788006860FE0780002014368460181284601F0A4FCFA
:404EC000070007D021462846079A00F09FFC384609B0F0BD304600F04DFD04AE0346039002AA29460096204600F0D9FB3C20405D002818D0284601F087FC012813D0684631
:404F000000890096C0B20190A878231DFF22079902F05AFA68460089039BC2B2A878079902F0FCFDD3E7684600890021C0B20091E9E700009C100020F8B5002600253046D5
:404F4000FFF710FD07001DD090201149704340186030447F12E0601CFDF73AF9CCB23846E040C007C00F07D02146304601F0B2FF21463046FFF7A6FD6D1CEDB20548018ABF
:404F8000A942E8D8761C3606360ED7D0F8BD0000C4180020B019002010B502F03FFB0020FFF7BEFE0EF0EAFF002010BDF8B5002400F0DEF80123012800D10124104F002003
:404FC0003E4620360425082203E0002801D0002100E031460979002907D001290BD002290BD0114681402143CCB2401C0006000EEBD07C70F8BD1C43F7E72C43F5E7000055
:40500000C418002010B5FFF7D1FF10BD10B5044606F01DFA002802D1601C00F001F810BD1CB500240094062269460194FDF7ECF9002800D1122420461CBD000070B50E4C18
:40504000FCF7B7FD0546FEF793FB062802D02078012803D02846FCF7B0FD70BDFDF720F82846FCF7AAFDFEF783FB0628F5D020780028E5D170BD00004A10002010B5FCF79D
:4050800098FD0446FEF774FB012809D0FEF770FB022805D0FDF704F82046FCF78EFDEEE72046FCF78AFD10BD10B50B4681791943817103D08078114602F0CCFC10BD10B52A
:4050C00082798A43827102D1807802F0D7FC10BD30B50C4C0220A28A0B4B9978002901D0022906D11D785B78EB18282B01D9032002E0032900D101205105490DC00201433D
:40510000A18230BDC0112E405410002000B500F035F8002807D0012805D0032801D0042801D0002000BD012000BD000002460448018B0020C908114200D00120704700000D
:4051400000102E40014600B50020C90701D000F00FF800BD014600B50020C90701D000F007F800BD01480068704700004C10002001480088000A704720102E400448008BEC
:40518000410501D5042070474007800F7047000000102E4001484068704700004C10002038B50446000610D5FFF7E8FF01280CD1684601F05BFF6846007800F02BFB01206E
:4051C00001F0B0FD0220FFF71DFF600708D507480179012904D1002101712620FFF7E4F90348006801692046884738BD581000208410002010B501460A4A00780024107026
:40520000FFF7B6FF0128084603D002F025FB204610BD00F0E7F80400F9D1034801210170F5E70000541000208419002070B50446FFF79EFF002801D00C2070BDA27B012109
:405240001F48002A827801D00A4301E05208520082706279012A14D0C17849084900C170184D2868016820468847207901280CD06188208803F0DEF92080207904280FD048
:4052800015E0C2780A43C270EAE72868C168E01D8847E01D02F060FB0B48808C208006E02868C168E01D8847E01D02F055FB074920798870204602F0DDFA002070BD00009A
:4052C000C4180020841000207C1800205410002008B50178FFF74CFF814201D10C2008BD002914D0072069460870FFF70FFF012807D10121684600F0E5F8012801D00920A9
:4053000008BDFFF7E5FE02F0E9FA012011E0FFF7FDFE012806D1684601F0A8FE6846007800F0ACFA02F0D0FAFFF722FF0028FBD10220FFF767FE002008BD000010B50146C1
:405340000A4A007800245070FFF712FF0128084603D002F05FFB204610BD00F065F80400F9D1034801214170F5E70000541000208419002038B568460EF000FD002801D0C8
:405380001F2038BD01210098C90201804180002505714571857107214173857302F06AFA009C202200212046FDF746F825702A460021601CFDF740F8204602F04DFA204617
:4053C00002F028FB00980EF043FD062200210448FDF732F802480C388560002038BD000058100020F8B5044600250D4800950078012806D068460EF0C1FC002803D00725F2
:405400000CE00C250AE0074E009830602278611C401CFDF708F83168207808702846F8BD841900204C100020F8B5044600250D4800954078012806D068460EF09FFC002850
:4054400003D007250CE00C250AE0074E009870602278611C401CFCF7E6FF7168207808702846F8BD841900204C1000200346084800B5834209D8184600F01AFE002804D083
:405480000089984201D1012000BD002000BD0000FF0E0000074A9179491C8906890E917138220A4092014907090E11430843024908407047C4180020FF0E0000C006C00EE3
:4054C00070470000F8B507460E4600240D4803E0002C01D0002500E005462979002905D0641C2406240EF3D00020F8BD0021204601F02AF92E712046FFF7CCFF28813C7034
:405500000120F8BDE418002010B503F043FB0222002100F003F802F01DF810BD10B5094B40074907000F090F185A595A40185043C0086421FCF74CFE002800D1012080B2C2
:4055400010BD0000B4620100F7B53D20405C88B015460C46002802D02878042802D200200BB0F0BD6946087200262046FFF760FA012800D00126204603A9383001910090DA
:4055800023460327A17E34333246206A03F01EFC02A8089900900B46019120463A4603A9243003F0A3FA02466846007A2870204601F0B6F81046D3E7FFB587B00C460546EA
:4055C0001078694608723D20005D1746002826D000262046FFF72CFA012800D00126204603A93830019100902346A17E34333246206A03F0EBFB02A80090291D019120461F
:405600002B1D03A924300A9A03F070FA02006846007A388002D1204601F082F810460BB0F0BDF0B505463C20405C89B016460C4600280CD0307869460873002806D0002713
:405640002046FFF7F5F9012803D003E01F2009B0F0BD012703200890204604A93830019100902346E17E34333A46E06903F0AEFB6846007B03A928180290009120462B4639
:40568000019504A92430089A03F064FA02466846007B3070204601F04DF81046D7E7FFB505463C20405C89B016460C46002810D0084601F0A9F801280BD030886946888363
:4056C000002809D000272046FFF7B2F9012805D005E000200DB0F0BD0220FBE70127204603A93830019100902346E17E34333A46E06903F06BFB291D2B1D07A8129A6D4659
:4057000007C5204603A924300C9A03F023FA02466846808B3080204601F00CF81046D9E770B50D460446FFF783F901280AD0E87AA97A00020143A07801F0F8FD012808D05E
:40574000002070BD00222421204602F0C5FE242070BD28214C200155204600F0B1FB282070BD0000002801D0002000E003484030C07F012800D0002070470000E418002088
:405780000146002049070ED50021084B03E0002901D0002200E01A461279022A04D0491C0906090EF3D0704701207047E41800200146002049070ED50021084B03E00029FE
:4057C00001D0002200E01A461279022A04D0491C0906090EF3D0704701207047E418002010B5044680346068002803D00EF044FB0020606010BD4030417070474030817049
:4058000070474030017070470171704792001018C166704770B53C2501F09CF9040004D020460021433001F0BBFCFF222946204600F0E8FB002C02D0A07801F00DF970BDCF
:4058400010B5002801D0002000E00348002802D0008905F051FB10BDE418002010B5002801D0002000E00448002804D00179072901D100F047F810BDE418002010B501F022
:4058800069F9002802D0807801F0E6F810BD00207047000070B50546008A00281ED01049F122897A1140C90618D5294640314A8A098A521C4A4392B2D10800D101215408E7
:4058C00001E0621A94B2A042FBD9FEF725FD012804D1298AA878224601F0FEFD70BD00007C18002010B50023054C0B60248A944204D992001018C26E0A60C36610BD0000E3
:40590000B019002038B5044600200090A079002814D14020015D052901D00E290ED168460EF03CFA002809D12046009902F0B2FD03481021C28A2046FFF7B6FB38BD000050
:405940007C18002010B50B4604460146184602F023FA002802D020460EF084FA10BD13B5044601AA11460620FDF7FAFD6846818861811CBD002800D1022070477047000096
:40598000F8B504462346401D543300909A1EA078911E01F087FB25464035A88A298A8000FCF716FC401E81B2688A884203D96982A07802F035F9698A8C2001512046002113
:4059C000433001F0EDFB27480088E88103F0E2F8E989891C8AB26179FFF7A0FD01F0BAFD03F0D8F82A8A6179FFF798FD074601F0A5FD688A002806D01B49088A03221202EB
:405A00001043088202E0002002F0FEF81648803801886E8A002E0CD0304648431349FCF7C1FC0004000C01D0401C80B21049488002E00F4800214180288A704381B2A07896
:405A400001F0F6FFFF2228374932B9B21346204602F0F4FDE98AA07801F04AFFA07801F075FAF8BD80102E40E0112E40710200005E1000207FB504468034616805460E464E
:405A8000183108226846FCF7CEFC31462031082202A8FCF7C8FC102168460EF019F96068102108300EF014F960682B46083024331022694603F03AF87FBD10B50446082148
:405AC000FFF7FDFA10212046FFF7F9FA207905281FD006281DD008281AD12189002005F083F9072020712046FEF7A2FF014620464030012913D00E21017000210176204697
:405B000000F0BCFF2046FFF76BFE2046FFF7C2FE10BD20890122002105F04AF9E1E70521EAE70000FFB581B01F4604460821FFF7C6FA10212046FFF7C2FA2079082803D0D0
:405B4000092804D0042203E00422012501E009220025204600F044FE264600204036307022712046FFF73CFE0398002D02D0012808D00BE001280AD120890022029905F052
:405B800017F904E02189029805F02EF9012700203076012F04D0204600F070FF05B0F0BD02983073204602F0C3FC054605480121C28A2046FFF778FA002DEFD109202071A9
:405BC000ECE700007C18002070B50C460546FEF72FFF012809D108212846FFF770FA0023012221462846FFF79DFF70BD10B5044600F0F6FD2046FFF7F3FD00214034217001
:405C000010BD70B505461A24FEF712FF012809D108212846FFF753FA0023012221462846FFF780FF70BD0000F8B50446002000900E4668460EF0B2F8002801D00D20F8BD1D
:405C40008420005908212030009D00F02CFA20460421383000F027FA002E02D1204600F0FBFD2946204602F0A4FB0E480821C28A2046FFF719FA204600F071FF2546403562
:405C8000002808D0204600F023F8002801D0092028700020F8BD08202870204600F0DAFFF7E700007C180020014610B540310A460978082906D0092907D00A2901D100F010
:405CC00091F810BD0B20107010BD00F001F810BD70B50446007925464035052805D0062803D008280FD00C2070BD03220621204602F0F2FB0D480821C28A2046FFF7D4F969
:405D00001120287010E006202873204602F010FC0646AA8A0A20424301212046FFF7C4F9002E01D109202071002070BD7C18002038B504460020009068460EF02FF800287E
:405D400001D00D2038BD2046009D00F0C3F908202071204600F080FD2946204602F05CFB00213D2001550F2040210855204600F071FF002038BD00B5024600F031FD1021EF
:405D80004032117000BD10B50446FEF751FE012809D04020005D112805D100231A4606212046FFF7BFFE10BD10B5FFF786FE10BD38B504460021684600910DF0EFFF0028CC
:405DC0000CD12046009902F0A8FB05480821C28A2046FFF769F90D204034207038BD00007C18002038B504460021684600910DF0D5FF002801D00D2038BD2046009902F064
:405E000081FB05480821C28A2046FFF74DF90C2040342070002038BD7C18002000787047F8B5002569460D70002801D0002400E01F4C002C18D0204600F0DBFC002813D0A8
:405E4000207903280BD005280CD026464036B18AA07801F0F7FDB078012806D01DE0042020711DE006202071F8BD0021204601F0B0FF274680373868002802D00DF0FCFF41
:405E80003D600020B0702079072802D12046FFF701FD0221204600F0F7FE20790428E3D1207A694608703420FEF77EFBF8BD0000E418002010B54C22115400F052F810BD36
:405EC00010B50446FF21FFF7FAF809202071A07801F0DEFD10BD000038B5FF216A461180002801D0002400E00B4C002C12D011460620FDF735FB684601882046FFF72FFD10
:405F0000204600F087FC002804D104480068C1692046884738BD0000E4180020A010002010B504468079002809D022214C200155FF212046FFF7C3F8204600F012F810BD25
:405F400010B5037902464032002B03D01173092B02D003E0002100E02221117300F001F810BDFEB504460089002700902781207926464036002817D0012815D002280AD1BB
:405F800012E002AA01A9204601F0F4FE002807D101980DF067FF204601F014FF0028F0D02046FEF789FBB776254680352868002802D00DF061FF2F606868002802D00DF099
:405FC0005BFF6F60317B002919D0009800F064F8A078002100F0DCFF2046FFF795FAA07801F08EF9A07800F037FDFF212046FFF766F80B20FFF706F800F068FCFEBD1F21D3
:406000003173E2E7F8B517460E46054602F0BEFD04003CD020460C3001F0B2F82046062200211830FCF708FA2046062200211230FCF702FA1648224600683946436A2846BC
:406040009847074626702846FEF7F2FC012148406070002D10D02889608028464030C1782171002E0FD169796171018AE180418A2181808A608106E00648008BC005C00FF3
:406080002071002060803946204604F030FEF8BD8410002000102E400A4610B50146002004F042FF10BD10B50DF0EEFB10BD000000B50146FFF702FA002801D0002000E084
:4060C0000348002802D002898A4200D0002000BDE418002038B5044680346068002806D168460DF06BFE002801D100986060606838BD000010B5014600F086FB01288878C0
:4061000002D0FEF79FFC10BD90214843024940186030007F10BD0000C418002070B5054604464035A87F012811D1A1789020084A484380186030067F3046FEF751FE0028E3
:4061400005D10220A877A078314601F093F970BDC418002010B50C4CA07A002813D0FEF7EBFE0A48027F417F408B00F0B7FB012809D10020A07200F08FFF05498989090B8C
:4061800001D000F03BFA10BD94190020C4180020A0102E4070477047490510B5490F0B00FCF75AFB060704080C0C0F073E21FFF781FE10BD0821FFF7C3FE10BDFFF7D1FEAF
:4061C00010BDFFF7ADFE10BDF8B507460025002D01D0002600E0204E00F0FEFE3046403044890021418100F01BFF304600F001FB01282BD1A00702D52846FFF711FEE006E9
:4062000002D52846FFF768FEA00601D5FEF794FE600601D500F014FB200602D5284600F01DF8600702D5284600F02CFA380402D52846FFF713FB780402D52846FFF700FB16
:40624000E00703D021463046FFF7A6FF6D1C2D062D0EBCD0F8BD0000E4180020F8B5002801D0002400E0284C002C4BD025464035A878012846D1FF278820493700593E46C8
:40628000002805D02149897A890601D5878AC68A2046FEF7CDFB012834D002F07BFC2A8A6179FFF73BF9009001F048F900983346283081B23A46204602F0C0F9E98AA078C3
:4062C00001F016FB12480188688A124E002810D048431149FCF766F80004000C01D0401C80B27080A07DC107C90F002001F04EFC01E000207080288A698A484381B2A07846
:4063000001F096FBF8BD0000E41800207C18002060112E405E100020710200000149096809680847A010002070B50D460026194A0146002801D0002401E014462034002C0B
:4063400026D0204600F060FA01280AD19020484380186030007FFEF743FD002801D102F067F80D48006881692046884700280CD020464030817EA94202D3491B817600E061
:4063800086762089294604F070FD204600F062FC70BD0000C4180020A010002070B503460088FFF785FE040013D000F022FA00280FD02079092819D0254699784035297312
:4063C000204602F0B5F80646A878012803D0AA8A02E0022070BDEA880A20424301212046FEF762FE002E01D109202071002070BD0EB5002217216B460292198100905A815F
:406400000120029B00990DF0D7FD0EBDF8B518480024807A002822D1164E0025B089000B22E0204600F03CFF1249A039401807882A462146384600F051FA012810D00E48B9
:406440000122478305770A4944778A72002D01D0002000E02030002801D000F0FBFBF8BDB089000B641CE4B20028DAD1F8BD000094190020A0102E40C418002010B50088B1
:40648000FFF716FE002809D0014640310C460978082905D00B2903D00C2010BD022010BDFFF716FC002801D009202070002010BD70B503460088FFF7FBFD040008D025467F
:4064C00040352878082805D00B2803D00C2070BD022070BD8420005910220830991CFBF7A2FF2046FFF7C6FA2878082804D02046FFF778FC002801D00A202870204600F084
:40650000A9FB002070BD000010B50C46002121700088FFF7CDFD03000BD000F06AF9002807D00948F121807A0840C00603D4112010BD022010BD022020701A8A18890021E2
:4065400004F00EFD002010BD7C180020F8B50F46002100910088FFF7ABFD040012D000F048F900280ED0E079410641D4617E02264A07002A08DB8907402500291ADA2843ED
:40658000E07135E00220F8BD02F000FB0021017021894180A1898180217E4170E189C1803E7005460178134804F090F9284604F07BFC1DE0204600F02DF9012806D0684645
:4065C0000DF0ECFB002803D00720F8BD2A20F8BDE07900992843E071204601F0D3FF607E0421304360760448C28A2046FEF75CFD0020F8BD1D0400007C1800203EB50022B3
:406600000F236C460292238100910190628169460EC900200DF0D0FC3EBD0000F8B50F46054600F097FA040025D003202071254600264035EE76E6702046FFF7A1F901F0AD
:4066400043F90920FEF7DEFCA07800F047FE0121204600F019FB2E706E70AE703A4600212046FFF7CFFC0649887B401C8873A078FFF754FEF8BD284601F00AFAF8BD0000D5
:40668000C418002010B5002801D0002000E0094800280DD0014640310A464978022901D100215170807DC107C90F002001F06EFA10BD0000E418002070B503460D460088DA
:4066C000FFF7F6FC04000BD000F093F8002807D01248F121807A0840C00603D4112070BD022070BD20464030418A008A491C41430804C10C5888884201D2122070BD2082F6
:406700002079072802D12046FFF7C4F8022028702089002104F04CFC002070BD7C180020016A491C016204D1817E491C4906490E81767047C169491CC16104D1C17E491CFB
:406740004906490EC1767047F0B5074687B003A8009005A800260D460190002F01D0002400E01B4C002C05D06846FBF7C1FE002803D00BE0022007B0F0BD68460089C00735
:4067800004D1902200212046FBF756FE114829460068826820469047050016D1A77066762746267140373E70204600F019F8204601F004FB084820820848BE77807AF121E6
:4067C000084000D001202075E682E8B2D3E70000E4180020A0100020B80B00007C180020002101628176C161C17620300177417770470079002805D0012803D0022801D034
:4068000001207047002070474030807F002800D00120704740300078002807D0012805D0052803D00E2801D0012070470020704710B5807801F042FA002800D0012010BDFF
:4068400010B500F029FC03498989090B01D0FFF7D5FE10BDA0102E4070B5054604464035A87F002825D1FF206075A0789021154A484380186030417F9023491CC9B24177F9
:40688000A0785843104B8018DB896030994201D300214177A0789021484380186030467F0677A1783046FEF79BFA002802D00120A87770BD0220A877A078314600F0DAFDE1
:4068C00070BD0000C4180020B01900200020401C0006000EFBD0002070470000F0B515468207920F85B0000A02926A469080002D01D0002400E0564C002C28D0084600F091
:40690000CFFC07466846808800280BD00298012843D0022841D003280BD03D20005D012879D08FE04B48381801882046FFF717F888E00020029002A80DF010FA002807D033
:406940003D20005D012802D12046FFF7E9FE7CE06846029E8388324600213846FCF7F4FC3C48381801882046FEF7F9FF284600F0FFFA01AA21463046FEF7E6FD002806D00A
:4069800030460DF05BFA3D204C21085531E0F5773146204601F07AFB57E0002000902089039068460DF0CAF9002802D0002005B0F0BD6846009E8388321D00213846FCF7E3
:4069C000C3FC2448381801882046FEF7C8FF284600F0CEFA2046FFF70CFF002805D025464035287E002810D107E030460DF01CFA2BE02046FFF764FA27E001AA2146304694
:406A0000029BFEF7D9FD002806D030460DF00CFA3D202873EDE712E00298FEF7AFFF0399317003990001090A0143717068468088B070000AF0703046FFF7DAFC05E020469D
:406A4000FFF76EFE284600F093FA0120AFE70000E418002000102E4010B5074A917B002901D0491E91730021FFF76EFE002801D0002010BD012010BDC4180020F8B50746A4
:406A800006464037B87F00282DD0B078902100904843234945186035287F0099FEF7B5F901281ED0287F401CC4B21E48C089A04200D800240020B877FF276F772F77A87745
:406AC00002460146009800F051FE717DFF2903D0304601F034F9777501F0AAFC0025114F19E00320B877F8BD00200090224669463046FEF7F7FE0099002904D0FF231A466C
:406B00003046FEF79AF9641CF889E4B2A04200D800246D1CEDB2F889A842E5D8F8BD0000C4180020B019002010B502460021084B03E0002901D0002000E0184604799442E9
:406B400004D0491C0906090EF3D0002010BD0000E418002000B50120FFF7E6FF00BD10B5044602F013F82189018080346168416061682831816004F051F910BDF7B5064621
:406B8000087982B00C46092807D0A078F0770846FFF73AFE012806D010E030460DF062F9022005B0F0BDA1789020294A484380186030007FFEF714F9012810D0A078FEF706
:406BC000D1FD01280BD037780121304601F0DCFB25462035062F38D00B2F0FD107E06846027C21463046FEF7ADFE0D20D9E72046FDF71EFF012801D1002028772046FFF793
:406C000079FA054604AA21463046FEF70AFD01205F2108556946097C002001910090A07833463A46294600F0CFFB69460A7CA0780323294600F072FFA0782946FDF71AFD8C
:406C400030460DF00FF90020ABE70120D5E70000C418002010B502464032937F0021002B03D1927E002A00D00121064A927A002A00D000210279092A00D10121807800F031
:406C8000A5FF10BD9419002070B50C460546FDF7CFFE00280BD1012C06D92879092806D02846FFF7C5FD0446002C02D004E0012402E0A87DC007FAD1A87DC107C90F204620
:406CC00000F064FF70BD0000012807D0082804D104480282034808300180704701488038FAE70000A0102E40014908817047000000102E4010B50446FF20F130012C01D12E
:406D0000FF20D530002200F0A3FF044A108A044980B2A0430880108210BD000000102E4062100020034B198A034A89B2814311801982704700102E406210002010B50446FB
:406D4000012802D0082C07D102E0FF20D53001E0FF20F13000F074FF0348018A034A89B221431180018210BD00102E4062100020034B198A034A89B201431180198270472F
:406D800000102E406210002070B5054604462035A87FF122800012018018164A86183088400840003080002906D10121AB7FFF220903601D00F080FE89212046AB7F802221
:406DC0004901113000F078FE83212046AB7F202249010B3000F070FE43212046AB7F40228901173000F068FE208801210843308070BD000000102E40F8B505460120A8405B
:406E000086B214460F46012231467C2000F020FF3A463146782000F01BFF6078267800020643E078A2780002024360792379000203430C2045430D2080010549281844180A
:406E40002680001D44182280001D40180380F8BD00102E40401880B270470000CB065B0E0343480901021943D00108430121C902084301490881704780142E4042780378A0
:406E800012021343084A1382C37880781B021843908248780B78000203431383C8788978000201439183704700142E40024A1080000C90801181704700142E40044A00219D
:406EC00080180288491C89B21029FAD37047000000102E40024A10820148803081817047A0102E407047000010B5054A1082084600F0D2FE024A0021A03A8018018010BD4F
:406F0000A0102E4010B50B46044600F017F819462046FFF7DFFF10BD002310B5F121064A090118468C182380091D401CC0B289B20828F7D310BD000000102E40024A108223
:406F40000148803001817047A0102E4010B504490882FF20002220211D3000F079FE10BDA0102E400149088070470000C0102E40000202494D3008807047000000102E40B6
:406F80000249888A0422904388827047C0112E4010B5084B074C0202A03B0029208202D075321A8010BD04490020088088807632F7E70000A0102E40201A2E40054B19884C
:406FC00007229202002801D0114300E09143198070470000001F2E4000B5034908884880FFF7A0FE00BD00006210002010B50120FDF7F6FA01495020088010BD00102E4063
:4070000006490E220028888806D01043888003495120C039088070479043F7E7C0102E4000B502484088FFF7A3FE00BD6210002010B5FCF787FB10BD0149522008807047D5
:4070400000102E40034908880122D2031043088070470000001F2E40884201D8081A03E00022D243101A401880B2704700210170704700000748808806492039098B8842AF
:4070800001D8081A03E00022D243101A401880B27047000020112E400148008AC0B27047A0102E4070B5084C049D2082074804890548603006880E8001891180808818804B
:4070C0006007400F287070BDA0102E40E0112E400148008970470000C0102E4000280FD00D4A108B0870000A4870908B8870000AC8700948203000880871000A487170472D
:40710000064A10880870000A487090888870000AC8701089F0E7000040102E40C0112E4000B5024A00F004F800BD0000FF7F000000B51346FFF790FF984201D8022800D204
:40714000002000BD0148008A70470000001A2E40024908820248008970470000A0102E40001A2E40014880887047000020102E40024908820148803000887047A0102E404A
:40718000064B1A8999891B8A0270120A42708170090AC1700371190A4171704760102E40012904D00549098BC90B017070470349403109898907C90FF7E7000000102E40D2
:4071C000024908820248008970470000A0102E40201A2E40FFB581B00024FF232B4D0B9E002805D0022803D003283CD006281CD12C8B2F46A004850E2007000F012802D03E
:40720000252D1AD916E00C2D14D106230021F820FCF79AF806230021F820029AFCF794F8002E01D0388B1CE0002304980480184605B0F0BDFFF706FFF9E706230021F82093
